S01600002E2F44656275672F5254532D4C61622E73313936
S3152000000000BFDFF814D004F03EFF07F01FF804F01D
S315200000104CBFFEE700BF000000C0012080B500AF46
S3152000002001214FF4804003F08FFD00214FF48040E2
S3152000003003F08AFD00BF80BD80B483B000AF0346C5
S31520000040FB71044AFB79136000BF0C37BD465DF88F
S31520000050047B70470038014080B483B000AF03466C
S31520000060FB71044AFB79136000BF0C37BD465DF86F
S31520000070047B70472000274280B485B000AF03463A
S315200000800A46FB711346BB710023FB60BB7903F064
S3152000009003039B000F2202FA03F3FB60164ABB7987
S315200000A09B08DBB2023352F82320FB68DB4312485D
S315200000B0B9798908C9B21A408B1C40F823200E4A08
S315200000C0BB799B08DBB2023352F82320F979BB793E
S315200000D003F003039B0001FA03F30748B979890863
S315200000E0C9B21A438B1C40F8232000BF1437BD46E3
S315200000F05DF8047B704700BF0038014080B483B0B0
S3152000010000AF7860044A7B68136000BF0C37BD4699
S315200001105DF8047B704700BFDC00274280B483B0C3
S3152000012000AF0346FB71044AFB79136000BF0C370E
S31520000130BD465DF8047B70470004274280B483B037
S3152000014000AF0023FB71094B1B6A03F48073002B5D
S3152000015002D00123FB7101E00023FB71FB791846D5
S315200001600C37BD465DF8047B704700BF0038014060
S3152000017080B400AF094B00221A60084B00225A6057
S31520000180064B00229A60054B0022DA60034B044A94
S315200001905A6100BFBD465DF8047B7047003C0140B4
S315200001A0FFFF7F0080B485B000AF78600023FB603E
S315200001B0344BFB607B689B79002B4FD0314B1A6800
S315200001C07B681B68DB432F4913400B602D4B5A6815
S315200001D07B681B68DB432B4913404B607B681B798C
S315200001E01A46FB681344FB60FB6819687B681A682B
S315200001F0FB680A431A60234B9A687B681B68DB43BB
S31520000200204913408B601F4BDA687B681B68DB43F1
S315200002101C491340CB607B685B79102B0ED1194BA0
S315200002209A687B681B68174913438B60154BDA68FD
S315200002307B681B6813491343CB601DE0114BFB60A1
S315200002407B685B791A46FB681344FB60FB68196878
S315200002507B681A68FB680A431A600DE07B681B7985
S315200002601A46FB681344FB60FB6819687B681B68A9
S31520000270DA43FB680A401A6000BF1437BD465DF8B2
S31520000280047B7047003C014080B483B000AF7860A7
S315200002907B6800221A607B6800221A717B680C2218
S315200002A05A717B6800229A7100BF0C37BD465DF8F3
S315200002B0047B704780B483B000AF7860054B1A6921
S315200002C004497B6813430B6100BF0C37BD465DF8BC
S315200002D0047B7047003C014080B485B000AF786055
S315200002E00023FB73084B5A697B681340002B02D00E
S315200002F00123FB7301E00023FB73FB7B18461437B5
S31520000300BD465DF8047B7047003C014080B483B055
S3152000031000AF7860044A7B68536100BF0C37BD4646
S315200003205DF8047B704700BF003C014080B485B077
S3152000033000AF78600023FB73084B5A697B68134033
S31520000340002B02D00123FB7301E00023FB73FB7B10
S3152000035018461437BD465DF8047B7047003C0140C3
S3152000036080B483B000AF7860044A7B68536100BFD5
S315200003700C37BD465DF8047B704700BF003C01404A
S3152000038080B582B000AF78607B680E4A93420AD16E
S3152000039001214FF0007003F0B7FB00214FF00070F1
S315200003A003F0B2FB09E001214FF0806003F0ACFBC3
S315200003B000214FF0806003F0A7FB00BF0837BD4641
S315200003C080BD00BF0064004080B485B000AF786077
S315200003D039600023FB730023BB607B681B6823F016
S315200003E002027B681A607B681B6843F001027B6807
S315200003F01A6002E0BB680133BB607B685B6803F070
S315200004000103012B04D0BB684FF6FF729342F1D152
S315200004107B685B6803F00103012B02D00023FB738A
S315200004209CE03B689B79012B06D17B681B6843F0D7
S3152000043080027B681A6005E07B681B6823F08002D7
S315200004407B681A603B68DB79012B06D17B681B68C9
S3152000045043F040027B681A6005E07B681B6823F046
S3152000046040027B681A603B681B7A012B06D17B68A9
S315200004701B6843F020027B681A6005E07B681B68D6
S3152000048023F020027B681A603B685B7A012B06D139
S315200004907B681B6843F010027B681A6005E07B6866
S315200004A01B6823F010027B681A603B689B7A012B3D
S315200004B006D17B681B6843F008027B681A6005E05A
S315200004C07B681B6823F008027B681A603B68DB7A2E
S315200004D0012B06D17B681B6843F004027B681A60F7
S315200004E005E07B681B6823F004027B681A603B6882
S315200004F09B789A073B68DB781B061A433B681B7977
S315200005001B041A433B685B791B051A433B681B880F
S31520000510013B1A437B68DA617B681B6823F0010282
S315200005207B681A600023BB6002E0BB680133BB60B6
S315200005307B685B6803F00103012B04D1BB684FF68F
S31520000540FF729342F1D17B685B6803F00103012BB4
S3152000055002D10023FB7301E00123FB73FB7B1846CA
S315200005601437BD465DF8047B704790B484B000AF65
S3152000057078600023FB607B689B7A1A4601239340B0
S31520000580FB605A4BD3F80032584A43F00103C2F8B5
S315200005900032564BD3F81C22FB68DB4353491340E9
S315200005A0C1F81C327B681B7B002B29D14F4BD3F81B
S315200005B00C22FB68DB434D491340C1F80C327B68A3
S315200005C0DB881B047A685288144648497A68927AEE
S315200005D0104643EA040200F1480341F833207B68C1
S315200005E09B881B047A681288144640497A68927A56
S315200005F0104643EA040200F14803DB000B445A602C
S315200006007B681B7B012B28D1384BD3F80C2237492A
S31520000610FB681343C1F80C327B681B881B047A687D
S315200006205288144631497A68927A104643EA04027F
S3152000063000F1480341F833207B689B881B047A68C5
S31520000640D288144629497A68927A104643EA0402E7
S3152000065000F14803DB000B445A607B68DB7A002BF1
S3152000066009D1224BD3F80422FB68DB431F491340F0
S31520000670C1F8043207E01D4BD3F804221B49FB685E
S315200006801343C1F804327B681B89002B08D1174B12
S31520000690D3F81422FB68DB4314491340C1F8143203
S315200006A07B681B89012B07D1104BD3F814220F49E5
S315200006B0FB681343C1F814327B685B7B012B07D19F
S315200006C00A4BD3F81C220949FB681343C1F81C3294
S315200006D0064BD3F80032054A23F00103C2F8003254
S315200006E000BF1037BD4690BC704700BF0064004075
S315200006F080B483B000AF78607B6800229A717B68F3
S315200007000022DA717B6800221A727B6800225A72F4
S315200007107B6800229A727B680022DA727B6800224C
S315200007209A707B680022DA707B6803221A717B68D4
S3152000073002225A717B6801221A8000BF0C37BD46FF
S315200007405DF8047B704780B483B000AF0346FB712D
S31520000750144BD3F80032134A43F00103C2F8003297
S31520000760104BD3F800320F4A23F47C5323F00E03A8
S31520000770C2F800320B4BD3F80022FB791B02094941
S315200007801343C1F80032074BD3F80032054A23F051
S315200007900103C2F8003200BF0C37BD465DF8047B6A
S315200007A0704700BF0064004080B483B000AF78601B
S315200007B00B46FB70FB78002B06D07B681B6843F446
S315200007C080327B681A6005E07B681B6823F48032E0
S315200007D07B681A6000BF0C37BD465DF8047B704706
S315200007E080B483B000AF78600B46FB70FB78002B9B
S315200007F01ED07B681B6843F080027B681A607B688A
S31520000800D3F8843143F480727B68C3F884217B68F3
S31520000810D3F8943143F480727B68C3F894217B68C3
S31520000820D3F8A43143F480727B68C3F8A4211DE079
S315200008307B681B6823F080027B681A607B68D3F88C
S31520000840843123F480727B68C3F884217B68D3F8D3
S31520000850943123F480727B68C3F894217B68D3F8A3
S31520000860A43123F480727B68C3F8A42100BF0C371F
S31520000870BD465DF8047B704780B485B000AF7860D4
S3152000088039600023FB737B689B6803F08063B3F1B8
S31520000890806F02D10023FB7315E07B689B6803F011
S315200008A00063B3F1006F02D10123FB730BE07B6879
S315200008B09B6803F08053B3F1805F02D10223FB7360
S315200008C001E00423FB73FB7B042B00F09F80FB7B62
S315200008D07A6818331B0113441A68FB7B02F0010265
S315200008E0796818331B010B441A603B681B7A002B6E
S315200008F013D1FB7B7A6818331B01134419683B68B4
S315200009001B685B053A68527A1A43FB7B0A4379686F
S3152000091018331B010B441A6015E0FB7B7A681833E9
S315200009201B01134419683B685B68DB003A68127A3E
S3152000093013433A68527A1A43FB7B0A437968183381
S315200009401B010B441A603B689B7A03F00F03DAB253
S315200009503B689A72FB7B7A6818331B011344043375
S315200009601A68FB7B22F00F02796818331B010B44AF
S3152000097004331A60FB7B7A6818331B011344043353
S315200009801A683B689B7A1946FB7B0A4379681833B9
S315200009901B010B4404331A603B689B7B1A063B6899
S315200009A05B7B1B041A433B681B7B1B021A433B6879
S315200009B0DB7A1946FB7B0A4379681B010B4403F556
S315200009C0C4731A603B689B7C1A063B685B7C1B04DD
S315200009D01A433B681B7C1B021A433B68DB7B194688
S315200009E0FB7B0A4379681B010B4403F5C6731A6027
S315200009F0FB7B7A6818331B0113441A68FB7B42F091
S31520000A000102796818331B010B441A60FB7B1846D8
S31520000A101437BD465DF8047B704780B485B000AFBF
S31520000A2078600B46FB700023FB60FB78022B12D00C
S31520000A30022B16DC002B02D0012B06D011E07B689E
S31520000A409A68314B1340FB600EE07B689A682F4B07
S31520000A501340FB6008E07B689A682D4B1340FB60CF
S31520000A6002E00023FB6000BFFB68294A93423DD089
S31520000A70FB68274A93423CD8FB68264A93422CD0EF
S31520000A80FB68244A934234D8FB68204A93422AD0F2
S31520000A90FB681E4A93422CD8FB681F4A934219D002
S31520000AA0FB681D4A934224D8FB68174A934217D005
S31520000AB0FB68154A93421CD8FB68002B04D0FB68C0
S31520000AC0164A934203D014E00223FB6014E000236D
S31520000AD0FB6011E00023FB600EE00023FB600BE0CF
S31520000AE00123FB6008E00123FB6005E00123FB6096
S31520000AF002E00023FB6000BFFB68DBB21846143718
S31520000B00BD465DF8047B704703000004000300081F
S31520000B10000003100000011000010008010000047D
S31520000B2080B483B000AF78600B46FB70FB78022B55
S31520000B3014D0022B19DC002B02D0012B07D014E095
S31520000B407B689B6843F080027B689A600EE07B6836
S31520000B509B6843F400427B689A6007E07B689B6849
S31520000B6043F400027B689A6000E000BF00BF0C37A8
S31520000B70BD465DF8047B704780B485B000AFF86051
S31520000B800B467A60FB72FB7AFA681B331B0113440F
S31520000B901B68DBB203F00403DAB27B681A727B6847
S31520000BA01B7A002B0BD1FB7AFA681B331B011344EB
S31520000BB01B685B0DC3F30A027B681A600AE0FB7AA6
S31520000BC0FA681B331B0113441B68DB0823F06042C1
S31520000BD07B685A60FB7AFA681B331B0113441B6837
S31520000BE0DBB203F00203DAB27B685A72FB7AFA6848
S31520000BF01B331B01134404331B68DBB203F00F03C2
S31520000C00DAB27B689A72FB7AFA681B331B011344AB
S31520000C1004331B681B0ADAB27B68DA74FB7AFA683B
S31520000C201B01134403F5DC731B68DAB27B68DA72A6
S31520000C30FB7AFA681B01134403F5DC731B681B0A55
S31520000C40DAB27B681A73FB7AFA681B01134403F540
S31520000C50DC731B681B0CDAB27B685A73FB7AFA6862
S31520000C601B01134403F5DC731B681B0EDAB27B6889
S31520000C709A73FB7AFA681B01134403F5DE731B682B
S31520000C80DAB27B68DA73FB7AFA681B01134403F540
S31520000C90DE731B681B0ADAB27B681A74FB7AFA6861
S31520000CA01B01134403F5DE731B681B0CDAB27B6849
S31520000CB05A74FB7AFA681B01134403F5DE731B682A
S31520000CC01B0EDAB27B689A74FB7A002B06D1FB687E
S31520000CD0DB6843F02002FB68DA6005E0FB681B69ED
S31520000CE043F02002FB681A6100BF1437BD465DF849
S31520000CF0047B704780B483B000AF78600B46FB70EE
S31520000D00FB78002B06D17B68DB6843F020027B68EA
S31520000D10DA6005E07B681B6943F020027B681A6174
S31520000D2000BF0C37BD465DF8047B704780B485B0A4
S31520000D3000AF78600B46FB700023FB73FB78002B1B
S31520000D4006D17B68DB68DBB203F00303FB730BE0A1
S31520000D50FB78012B06D17B681B69DBB203F003030A
S31520000D60FB7301E00023FB73FB7B18461437BD465B
S31520000D705DF8047B704780B485B000AF78600B4681
S31520000D80FB700023FB734FF6FF73BB60FB78002BD1
S31520000D9020D17B681B6823F0030343F001027B68A4
S31520000DA01A6002E0BB68013BBB607B685B6803F0AE
S31520000DB00303012B02D0BB68002BF3D17B685B6851
S31520000DC003F00303012B02D00023FB734AE0012327
S31520000DD0FB7347E0FB78012B1ED17B681B6823F051
S31520000DE003027B681A6002E0BB68013BBB607B683C
S31520000DF05B6803F00303002B02D0BB68002BF3D102
S31520000E007B685B6803F00303002B02D00023FB738F
S31520000E1028E00123FB7325E0FB78022B20D17B6899
S31520000E201B6823F0030343F002027B681A6002E08A
S31520000E30BB68013BBB607B685B6803F00303022B46
S31520000E4002D0BB68002BF3D17B685B6803F00303F9
S31520000E50022B02D00023FB7304E00123FB7301E085
S31520000E600023FB73FB7B18461437BD465DF8047BD5
S31520000E70704780B485B000AF78600023FB737B6831
S31520000E801B6823F0030343F002027B681A607B6829
S31520000E905B6803F00303022B01D10123FB73FB7B69
S31520000EA018461437BD465DF8047B704780B485B07C
S31520000EB000AF78604FF6FF73FB600023FB727B6800
S31520000EC01B6823F002027B681A6002E0FB68013B84
S31520000ED0FB607B685B6803F00203022B02D1FB6890
S31520000EE0002BF3D17B685B6803F00203022B01D051
S31520000EF00123FB72FB7A18461437BD465DF8047B46
S31520000F00704780B485B000AF78600023FB737B68A0
S31520000F109B69DBB203F07003FB73FB7B1846143727
S31520000F20BD465DF8047B704780B485B000AF78601D
S31520000F300023FB737B689B691B0EFB73FB7B1846A8
S31520000F401437BD465DF8047B704780B485B000AF8A
S31520000F5078600023FB737B689B691B0CFB73FB7B10
S31520000F6018461437BD465DF8047B704780B485B0BB
S31520000F7000AFF860B9601346FB71FB79002B06D0F1
S31520000F80FB685A69BB681A43FB685A6106E0FB682E
S31520000F905A69BB68DB431A40FB685A6100BF1437A5
S31520000FA0BD465DF8047B704780B485B000AF78609D
S31520000FB039600023FB733B6803F47003002B0DD0CC
S31520000FC07B689A693B681340C3F31303002B02D056
S31520000FD00123FB7348E00023FB7345E03B6803F0E5
S31520000FE08073002B0DD07B685A683B681340C3F38F
S31520000FF01303002B02D00123FB7335E00023FB7380
S3152000100032E03B6803F00063002B0DD07B689A68C2
S315200010103B681340C3F31303002B02D00123FB7359
S3152000102022E00023FB731FE03B6803F00073002BD4
S315200010300DD07B68DA683B681340C3F31303002B9B
S3152000104002D00123FB730FE00023FB730CE07B68C7
S315200010501A693B681340C3F31303002B02D0012304
S31520001060FB7301E00023FB73FB7B18461437BD4658
S315200010705DF8047B704780B485B000AF7860396036
S315200010800023FB603B68174A934203D17B6800220A
S315200010909A6121E03B68C3F31303FB603B6803F0CE
S315200010A00073002B03D07B68FA68DA6014E03B6893
S315200010B003F08063002B03D07B68FA681A610BE08B
S315200010C03B6803F00063002B03D07B68FA689A60C4
S315200010D002E07B68FA685A6000BF1437BD465DF8A7
S315200010E0047B70477000F03080B584B000AF786024
S315200010F039600023FB737B685A693B681340002BD9
S3152000110000F01B813B68B3F5003F00F0DD803B68B3
S31520001110B3F5003F00F20E813B68B3F5803F00F047
S31520001120CA803B68B3F5803F00F204813B68B3F583
S31520001130004F00F0F6803B68B3F5004F00F2FA80CE
S315200011403B68B3F5006F00F0E3803B68B3F5006FB2
S3152000115000F2F0803B68B3F5806F00F0D0803B68EA
S31520001160B3F5806F00F2E6803B68B3F5007F00F0B0
S31520001170BD803B68B3F5007F00F2DC803B68B3F5A9
S31520001180807F00F0AA803B68B3F5807F00F2D28092
S315200011903B68202B4CD83B68002B00F0CB803B686B
S315200011A0013B1F2B00F2C68001A252F823F000BF9C
S315200011B0391200204B120020351300205D1200202A
S315200011C03513002035130020351300206F12002020
S315200011D03513002035130020351300203513002049
S315200011E035130020351300203513002081120020EE
S315200011F03513002035130020351300203513002029
S315200012003513002035130020351300203513002018
S315200012103513002035130020351300203513002008
S31520001220351300203513002035130020931200209B
S315200012303B68402B36D07DE07B689B684249184648
S3152000124000F060F90346FB7379E07B68DB680321D5
S31520001250184600F057F90346FB7370E07B68DB689D
S315200012600821184600F04EF90346FB7367E07B68B9
S31520001270DB681021184600F045F90346FB735EE053
S315200012807B681B690321184600F03CF90346FB7373
S3152000129055E07B681B690821184600F033F90346A0
S315200012A0FB734CE07B681B691021184600F02AF975
S315200012B00346FB7343E07B685B680821184600F011
S315200012C021F90346FB733AE07B685B6810211846D8
S315200012D000F018F90346FB7331E07B689B69012116
S315200012E0184600F00FF90346FB7328E07B689B69DC
S315200012F00221184600F006F90346FB731FE07B68BF
S315200013009B690421184600F0FDF80346FB7316E09E
S315200013107B689B697021184600F0F4F80346FB733E
S315200013200DE07B685B680421184600F0EBF8034665
S31520001330FB7304E00023FB7301E00023FB73FB7BBC
S3152000134018461037BD4680BD0101010080B483B028
S3152000135000AF786039603B68B3F5003F00F0AA80A3
S315200013603B68B3F5003F00F2C3803B68B3F5803F8E
S3152000137000F09C803B68B3F5803F00F2B9803B6863
S31520001380B3F5004F00F0AD803B68B3F5004F00F297
S31520001390AF803B68B3F5006F00F09C803B68B3F5E7
S315200013A0006F00F2A5803B68B3F5806F00F08E8059
S315200013B03B68B3F5806F00F29B803B68B3F5007FF6
S315200013C000F080803B68B3F5007F00F291803B6897
S315200013D0B3F5807F72D03B68B3F5807F00F28880BA
S315200013E03B68202B4AD83B68002B00F081803B6865
S315200013F0013B1F2B7CD801A252F823F08514002034
S31520001400F1140020F11400208D140020F114002086
S31520001410F1140020F114002095140020F11400206E
S31520001420F1140020F1140020F1140020F114002002
S31520001430F1140020F1140020F1140020F1140020F2
S31520001440F1140020F1140020F1140020F1140020E2
S31520001450F1140020F1140020F1140020F1140020D2
S31520001460F1140020F1140020F1140020F1140020C2
S31520001470F1140020F11400209D1400203B68402B1D
S3152000148010D035E07B681E4A9A6032E07B680822DD
S31520001490DA602EE07B681022DA602AE07B68082278
S315200014A01A6126E07B6810221A6122E07B680822F6
S315200014B05A601EE07B6810225A601AE07B6804227C
S315200014C05A6016E07B6804225A6012E07B68042288
S315200014D05A600EE07B6800229A617B6804225A607B
S315200014E007E07B6800229A617B6804225A6000E04C
S315200014F000BF00BF0C37BD465DF8047B704700BFB8
S315200015000101010080B485B000AF78603960002306
S31520001510FB737A683B681340002B02D00123FB73D0
S3152000152001E00023FB73FB7B18461437BD465DF8AC
S31520001530047B704780B582B000AF78607B68604AD4
S31520001540934208D10121012002F0FEFA0021012058
S3152000155002F0FAFAAFE07B68B3F1804F08D101219F
S31520001560012002F0D1FA0021012002F0CDFAA2E0FA
S315200015707B68544A934208D10121022002F0C4FA22
S315200015800021022002F0C0FA95E07B684E4A934281
S3152000159008D10121042002F0B7FA0021042002F02C
S315200015A0B3FA88E07B68494A934208D10121082092
S315200015B002F0AAFA0021082002F0A6FA7BE07B6856
S315200015C0434A934208D10121102002F09DFA0021BE
S315200015D0102002F099FA6EE07B683E4A934208D1C9
S315200015E00121202002F090FA0021202002F08CFA1E
S315200015F061E07B68384A934208D10121022002F03B
S31520001600A3FA0021022002F09FFA54E07B68334AB5
S3152000161093420AD101214FF4803002F095FA00213D
S315200016204FF4803002F090FA45E07B682C4A9342D2
S315200016300AD101214FF4003002F086FA00214FF43E
S31520001640003002F081FA36E07B68264A93420AD1BE
S3152000165001214FF4802002F077FA00214FF48020F8
S3152000166002F072FA27E07B681F4A934208D10121D3
S31520001670402002F049FA0021402002F045FA1AE003
S315200016807B681A4A934208D10121802002F03CFA55
S315200016900021802002F038FA0DE07B68144A93423C
S315200016A009D101214FF4807002F02EFA00214FF467
S315200016B0807002F029FA00BF0837BD4680BD00BF02
S315200016C0000001400004004000080040000C0040DB
S315200016D0001000400014004000040140004001407A
S315200016E0004401400048014000180040001C004012
S315200016F00020004080B485B000AF786039600023B8
S31520001700FB817B681B88FB817B68294A934213D027
S315200017107B68284A93420FD07B68B3F1804F0BD069
S315200017207B68254A934207D07B68244A934203D09C
S315200017307B68234A934208D1FB8923F07003FB81FF
S315200017403B685A88FB891343FB817B681D4A934279
S315200017500CD07B681C4A934208D0FB8923F4407343
S31520001760FB813B681A89FB891343FB817B68FA89D5
S315200017701A803B685A687B68DA623B681A887B68FD
S315200017801A857B680A4A934203D07B68094A9342AA
S3152000179004D13B689B7A9AB27B681A867B680122C1
S315200017A09A8200BF1437BD465DF8047B704700BFA0
S315200017B000000140000401400004004000080040F1
S315200017C0000C0040001000400014004080B483B09C
S315200017D000AF78607B684FF0FF325A607B6800224A
S315200017E01A807B6800221A817B6800225A807B68D7
S315200017F000229A7200BF0C37BD465DF8047B704705
S3152000180080B483B000AF78600B467B8013463B8064
S315200018107B687A881A857B683A889A8200BF0C375B
S31520001820BD465DF8047B704780B485B000AF786014
S315200018300B467B800023FB817B681B88FB81FB8911
S3152000184023F07003FB81FA897B881343FB817B6835
S31520001850FA891A8000BF1437BD465DF8047B7047AD
S3152000186080B483B000AF786039607B683A685A628A
S3152000187000BF0C37BD465DF8047B704780B483B04B
S3152000188000AF786039607B683A68DA6200BF0C374F
S31520001890BD465DF8047B704780B483B000AF7860A6
S315200018A07B685B6A18460C37BD465DF8047B70473B
S315200018B080B483B000AF78607B681B8D9BB21846DE
S315200018C00C37BD465DF8047B704780B483B000AF0B
S315200018D078600B46FB70FB78002B08D07B681B8852
S315200018E09BB243F002039AB27B681A8007E07B68BA
S315200018F01B889BB223F002039AB27B681A8000BF32
S315200019000C37BD465DF8047B704780B483B000AFCA
S3152000191078600B467B807B88002B08D07B681B88F1
S315200019209BB243F004039AB27B681A8007E07B6877
S315200019301B889BB223F004039AB27B681A8000BFEF
S315200019400C37BD465DF8047B704780B483B000AF8A
S3152000195078600B46FB70FB78002B08D07B681B88D1
S315200019609BB243F080039AB27B681A8007E07B68BB
S315200019701B889BB223F080039AB27B681A8000BF33
S315200019800C37BD465DF8047B704780B483B000AF4A
S3152000199078600B467B807B681B889BB223F008030C
S315200019A09AB27B681A807B681B889AB27B8813431D
S315200019B09AB27B681A8000BF0C37BD465DF8047B5F
S315200019C0704780B483B000AF78600B467B807B681D
S315200019D01B889BB223F440739AB27B681A807B687B
S315200019E01B889AB27B8813439AB27B681A8000BF01
S315200019F00C37BD465DF8047B704780B483B000AFDA
S31520001A0078600B46FB70FB78002B08D07B681B8820
S31520001A109BB243F001039AB27B681A8007E07B6889
S31520001A201B889BB223F001039AB27B681A8000BF01
S31520001A300C37BD465DF8047B704780B485B000AF97
S31520001A407860396000237B810023FB810023BB81E2
S31520001A507B681B8C9BB223F001039AB27B681A84A5
S31520001A607B681B8CFB817B689B88BB817B681B8B7F
S31520001A707B817B8923F070037B817B8923F00303A1
S31520001A807B813B681A887B8913437B81FB8923F002
S31520001A900203FB813B689A89FB891343FB813B68E0
S31520001AA05A88FB891343FB817B681F4A934203D0E4
S31520001AB07B681E4A934223D1FB8923F00803FB81CE
S31520001AC03B68DA89FB891343FB81FB8923F00403F6
S31520001AD0FB813B689A88FB891343FB81BB8923F4EE
S31520001AE08073BB81BB8923F40073BB813B681A8A50
S31520001AF0BB891343BB813B685A8ABB891343BB818D
S31520001B007B68BA899A807B687A891A833B689A6847
S31520001B107B685A637B68FA891A8400BF1437BD46EE
S31520001B205DF8047B704700BF0000014000040140BF
S31520001B3080B485B000AF7860396000237B810023B4
S31520001B40FB810023BB817B681B8C9BB223F0100397
S31520001B509AB27B681A847B681B8CFB817B689B8886
S31520001B60BB817B681B8B7B817B8923F4E0437B8154
S31520001B707B8923F440737B813B681B881B029AB2C6
S31520001B807B8913437B81FB8923F02003FB813B6800
S31520001B909B891B019AB2FB891343FB813B685B88B7
S31520001BA01B019AB2FB891343FB817B68224A93422D
S31520001BB003D07B68214A93422BD1FB8923F08003F3
S31520001BC0FB813B68DB891B019AB2FB891343FB81AE
S31520001BD0FB8923F04003FB813B689B881B019AB25B
S31520001BE0FB891343FB81BB8923F48063BB81BB89BB
S31520001BF023F40063BB813B681B8A9B009AB2BB8996
S31520001C001343BB813B685B8A9B009AB2BB89134313
S31520001C10BB817B68BA899A807B687A891A833B68FC
S31520001C209A687B689A637B68FA891A8400BF14379E
S31520001C30BD465DF8047B704700000140000401406A
S31520001C4080B485B000AF7860396000237B810023A3
S31520001C50FB810023BB817B681B8C9BB223F48073A2
S31520001C609AB27B681A847B681B8CFB817B689B8875
S31520001C70BB817B689B8B7B817B8923F070037B8177
S31520001C807B8923F003037B813B681A887B89134376
S31520001C907B81FB8923F40073FB813B689B891B02B4
S31520001CA09AB2FB891343FB813B685B881B029AB27D
S31520001CB0FB891343FB817B68224A934203D07B68CE
S31520001CC0214A93422BD1FB8923F40063FB813B6895
S31520001CD0DB891B029AB2FB891343FB81FB8923F420
S31520001CE08063FB813B689B881B029AB2FB89134366
S31520001CF0FB81BB8923F48053BB81BB8923F400532A
S31520001D00BB813B681B8A1B019AB2BB891343BB81EB
S31520001D103B685B8A1B019AB2BB891343BB817B68F4
S31520001D20BA899A807B687A899A833B689A687B68A5
S31520001D30DA637B68FA891A8400BF1437BD465DF8DA
S31520001D40047B7047000001400004014080B485B048
S31520001D5000AF786039600023BB8100237B8100239C
S31520001D60FB817B681B8C9BB223F480539AB27B68E1
S31520001D701A847B681B8C7B817B689B88FB817B68B4
S31520001D809B8BBB81BB8923F4E043BB81BB8923F4B6
S31520001D904073BB813B681B881B029AB2BB891343E5
S31520001DA0BB817B8923F400537B813B689B891B0382
S31520001DB09AB27B8913437B813B685B881B039AB26B
S31520001DC07B8913437B817B68124A934203D07B68CD
S31520001DD0114A93420AD1FB8923F48043FB813B6855
S31520001DE01B8A9B019AB2FB891343FB817B68FA8984
S31520001DF09A807B68BA899A833B689A687B681A645A
S31520001E007B687A891A8400BF1437BD465DF8047B47
S31520001E10704700BF000001400004014080B483B039
S31520001E2000AF78607B6800221A807B6800225A8087
S31520001E307B6800229A807B6800229A607B68002259
S31520001E409A817B680022DA817B6800221A827B686D
S31520001E5000225A8200BF0C37BD465DF8047B7047CE
S31520001E6080B485B000AF78600B467B8013463B80FC
S31520001E700023FB6000237B817B68FB60FB681833B3
S31520001E80FB607B88012202FA03F37B817B681B8C33
S31520001E909AB27B89DB439BB213409AB27B681A8441
S31520001EA07B88002B02D07B88082B14D17B885B088B
S31520001EB09BB21A46FB681344FB60FB681968FA68F4
S31520001EC04FF68F730B401360FB6819683A88FB68DE
S31520001ED00A431A6019E07B88043B9BB25B089BB2DD
S31520001EE01A46FB681344FB60FB681968FA6848F6D3
S31520001EF0FF730B401360FB681A683B881B029BB27A
S31520001F001946FB680A431A6000BF00BF1437BD4656
S31520001F105DF8047B704780B483B000AF7860396089
S31520001F207B683A685A6300BF0C37BD465DF8047B70
S31520001F30704780B483B000AF786039607B683A68B8
S31520001F409A6300BF0C37BD465DF8047B704780B4AA
S31520001F5083B000AF786039607B683A68DA6300BF87
S31520001F600C37BD465DF8047B704780B483B000AF64
S31520001F70786039607B683A681A6400BF0C37BD46C2
S31520001F805DF8047B704780B485B000AF78600B465F
S31520001F907B800023FB817B681B8BFB81FB8923F0E5
S31520001FA07003FB81FA897B881343FB817B68FA895E
S31520001FB01A8300BF1437BD465DF8047B704780B492
S31520001FC085B000AF78600B467B800023FB817B6861
S31520001FD01B8BFB81FB8923F4E043FB817B881B025F
S31520001FE09AB2FB891343FB817B68FA891A8300BF67
S31520001FF01437BD465DF8047B704780B485B000AFCA
S3152000200078600B467B800023FB817B689B8BFB8162
S31520002010FB8923F07003FB81FA897B881343FB81BC
S315200020207B68FA899A8300BF1437BD465DF8047B26
S31520002030704780B485B000AF78600B467B80002364
S31520002040FB817B689B8BFB81FB8923F4E043FB812F
S315200020507B881B029AB2FB891343FB817B68FA8932
S315200020609A8300BF1437BD465DF8047B704780B461
S3152000207085B000AF78600B467B800023FB817B68B0
S315200020801B8BFB81FB8923F00803FB81FA897B8864
S315200020901343FB817B68FA891A8300BF1437BD4638
S315200020A05DF8047B704780B485B000AF78600B463E
S315200020B07B800023FB817B681B8BFB81FB8923F4C0
S315200020C00063FB817B881B029AB2FB891343FB8149
S315200020D07B68FA891A8300BF1437BD465DF8047BF6
S315200020E0704780B485B000AF78600B467B800023B4
S315200020F0FB817B689B8BFB81FB8923F00803FB819B
S31520002100FA897B881343FB817B68FA899A8300BF0F
S315200021101437BD465DF8047B704780B485B000AFA8
S3152000212078600B467B800023FB817B689B8BFB8141
S31520002130FB8923F40063FB817B881B029AB2FB890F
S315200021401343FB817B68FA899A8300BF1437BD4607
S315200021505DF8047B704780B485B000AF78600B468D
S315200021607B800023FB817B681B8BFB81FB8923F013
S315200021700403FB81FA897B881343FB817B68FA89F8
S315200021801A8300BF1437BD465DF8047B704780B4C0
S3152000219085B000AF78600B467B800023FB817B688F
S315200021A01B8BFB81FB8923F48063FB817B881B02CD
S315200021B09AB2FB891343FB817B68FA891A8300BF95
S315200021C01437BD465DF8047B704780B485B000AFF8
S315200021D078600B467B800023FB817B689B8BFB8191
S315200021E0FB8923F00403FB81FA897B881343FB8157
S315200021F07B68FA899A8300BF1437BD465DF8047B55
S31520002200704780B485B000AF78600B467B80002392
S31520002210FB817B689B8BFB81FB8923F48063FB819D
S315200022207B881B029AB2FB891343FB817B68FA8960
S315200022309A8300BF1437BD465DF8047B704780B48F
S3152000224085B000AF78600B467B800023FB817B68DE
S315200022501B8BFB81FB8923F08003FB81FA897B881A
S315200022601343FB817B68FA891A8300BF1437BD4666
S315200022705DF8047B704780B485B000AF78600B466C
S315200022807B800023FB817B681B8BFB81FB89C3F34F
S315200022900E03FB817B881B029AB2FB891343FB81C9
S315200022A07B68FA891A8300BF1437BD465DF8047B24
S315200022B0704780B485B000AF78600B467B800023E2
S315200022C0FB817B689B8BFB81FB8923F08003FB8151
S315200022D0FA897B881343FB817B68FA899A8300BF3E
S315200022E01437BD465DF8047B704780B485B000AFD7
S315200022F078600B467B800023FB817B689B8BFB8170
S31520002300FB89C3F30E03FB817B881B029AB2FB89F0
S315200023101343FB817B68FA899A8300BF1437BD4635
S315200023205DF8047B704780B485B000AF78600B46BB
S315200023307B800023FB817B681B8CFB81FB8923F040
S315200023400203FB81FA897B881343FB817B68FA8928
S315200023501A8400BF1437BD465DF8047B704780B4ED
S3152000236085B000AF78600B467B800023FB817B68BD
S315200023701B8CFB81FB8923F00803FB81FA897B8870
S315200023801343FB817B68FA891A8400BF1437BD4644
S315200023905DF8047B704780B485B000AF78600B464B
S315200023A07B800023FB817B681B8CFB81FB8923F0D0
S315200023B02003FB817B881B019AB2FB891343FB8197
S315200023C07B68FA891A8400BF1437BD465DF8047B02
S315200023D0704780B485B000AF78600B467B800023C1
S315200023E0FB817B681B8CFB81FB8923F08003FB81AF
S315200023F07B881B019AB2FB891343FB817B68FA8990
S315200024001A8400BF1437BD465DF8047B704780B43C
S3152000241085B000AF78600B467B800023FB817B680C
S315200024201B8CFB81FB8923F40073FB817B881B02B9
S315200024309AB2FB891343FB817B68FA891A8400BF11
S315200024401437BD465DF8047B704780B485B000AF75
S3152000245078600B467B800023FB817B681B8CFB818D
S31520002460FB8923F40063FB817B881B029AB2FB89DC
S315200024701343FB817B68FA891A8400BF1437BD4653
S315200024805DF8047B704780B485B000AF78600B465A
S315200024907B800023FB817B681B8CFB81FB8923F4DB
S315200024A00053FB817B881B039AB2FB891343FB8174
S315200024B07B68FA891A8400BF1437BD465DF8047B11
S315200024C0704780B485B000AF78600B467B8013469A
S315200024D03B800023FB817B88012202FA03F3FB81E8
S315200024E07B681B8C9AB2FB89DB439BB213409AB262
S315200024F07B681A847B681B8C9AB239887B8801FAA0
S3152000250003F39BB213439AB27B681A8400BF143735
S31520002510BD465DF8047B704780B485B000AF786017
S315200025200B467B8013463B800023FB817B8804225D
S3152000253002FA03F3FB817B681B8C9AB2FB89DB438F
S315200025409BB213409AB27B681A847B681B8C9AB222
S3152000255039887B8801FA03F39BB213439AB27B68CE
S315200025601A8400BF1437BD465DF8047B704780B5DA
S3152000257082B000AF786039603B681B88002B0FD192
S315200025803B6859883B689A883B681B89786800F0C5
S31520002590B7FC3B68DB881946786800F0E1F836E03E
S315200025A03B681B88042B0FD13B6859883B689A8867
S315200025B03B681B89786800F0E6FC3B68DB88194697
S315200025C0786800F0E9F822E03B681B88082B0FD1D9
S315200025D03B6859883B689A883B681B89786800F075
S315200025E01FFD3B68DB881946786800F0F3F80EE09B
S315200025F03B6859883B689A883B681B89786800F055
S3152000260057FD3B68DB881946786800F0FFF800BF65
S315200026100837BD4680BD80B483B000AF78607B6844
S3152000262000221A807B6800225A807B6801229A80C9
S315200026307B680022DA807B6800221A8100BF0C3773
S31520002640BD465DF8047B704780B584B000AF7860E6
S3152000265039600023FB810123BB813B685B88002B0B
S3152000266002D10223FB8101E00023FB813B689B888A
S31520002670012B02D10223BB8101E00123BB813B68F0
S315200026801B88002B1CD13B6859883B689A883B687D
S315200026901B89786800F034FC3B68DB88194678682B
S315200026A000F05EF83B681B89BA89F989786800F0E2
S315200026B06AFC3B68DB881946786800F06DF81BE0F9
S315200026C03B6859883B689A883B681B89786800F084
S315200026D05AFC3B68DB881946786800F05DF83B6851
S315200026E01B89BA89F989786800F00AFC3B68DB887F
S315200026F01946786800F034F800BF1037BD4680BD13
S3152000270080B483B000AF78607B685B6B18460C376B
S31520002710BD465DF8047B704780B483B000AF786017
S315200027207B689B6B18460C37BD465DF8047B70476B
S3152000273080B483B000AF78607B68DB6B18460C37BB
S31520002740BD465DF8047B704780B483B000AF7860E7
S315200027507B681B6C18460C37BD465DF8047B7047BA
S3152000276080B483B000AF78600B467B807B681B8B80
S315200027709BB223F00C039AB27B681A837B681B8B6F
S315200027809AB27B8813439AB27B681A8300BF0C37B0
S31520002790BD465DF8047B704780B483B000AF786097
S315200027A00B467B807B681B8B9BB223F440639AB2DB
S315200027B07B681A837B681B8B9AB27B881B029BB231
S315200027C013439AB27B681A8300BF0C37BD465DF867
S315200027D0047B704780B483B000AF78600B467B8063
S315200027E07B689B8B9BB223F00C039AB27B689A83FF
S315200027F07B689B8B9AB27B8813439AB27B689A83B9
S3152000280000BF0C37BD465DF8047B704780B483B0AB
S3152000281000AF78600B467B807B689B8B9BB223F452
S3152000282040639AB27B689A837B689B8B9AB27B883B
S315200028301B029BB213439AB27B689A8300BF0C3764
S31520002840BD465DF8047B704780B483B000AF7860E6
S3152000285039603B681A883B685B8813439AB23B68A9
S315200028609B8813439AB23B68DB8813439AB23B6832
S315200028701B8913439AB23B685B8913439AB23B6820
S315200028809B8913439AB27B68A3F8442000BF0C3778
S31520002890BD465DF8047B704780B483B000AF786096
S315200028A07B6800221A807B6800225A807B6800227F
S315200028B09A807B680022DA807B6800221A817B68F6
S315200028C000225A817B6800229A8100BF0C37BD46C0
S315200028D05DF8047B704780B483B000AF78600B4608
S315200028E0FB70FB78002B0CD07B68B3F844309BB28E
S315200028F06FEA43436FEA53439AB27B68A3F84420B6
S3152000290009E07B68B3F844309BB2C3F30E039AB256
S315200029107B68A3F8442000BF0C37BD465DF8047BD6
S31520002920704780B483B000AF78600B46FB70FB78AD
S31520002930002B08D07B689B889BB243F004039AB295
S315200029407B689A8007E07B689B889BB223F0040310
S315200029509AB27B689A8000BF0C37BD465DF8047B2F
S31520002960704780B483B000AF78600B46FB70FB786D
S31520002970002B08D07B689B889BB243F001039AB258
S315200029807B689A8007E07B689B889BB223F00103D3
S315200029909AB27B689A8000BF0C37BD465DF8047BEF
S315200029A0704780B483B000AF78600B467B801346B7
S315200029B07B707B78002B08D07B689B899AB27B88BA
S315200029C013439AB27B689A8109E07B689B899AB205
S315200029D07B88DB439BB213409AB27B689A8100BF07
S315200029E00C37BD465DF8047B704780B483B000AFDA
S315200029F078600B467B807B687A889A8200BF0C378A
S31520002A00BD465DF8047B704780B485B000AF786022
S31520002A100B467B800023FB737B681B8A9AB27B88DC
S31520002A2013409BB2002B02D00123FB7301E000234D
S31520002A30FB73FB7B18461437BD465DF8047B704755
S31520002A4080B483B000AF78600B467B807B88DB4305
S31520002A509AB27B681A8200BF0C37BD465DF8047BAC
S31520002A60704780B485B000AF78600B467B8000232A
S31520002A70FB730023BB8100237B817B681B8A9AB270
S31520002A807B881340BB817B689B899AB27B881340E5
S31520002A907B81BB89002B05D07B89002B02D00123AB
S31520002AA0FB7301E00023FB73FB7B18461437BD46FE
S31520002AB05DF8047B704780B483B000AF78600B4626
S31520002AC07B807B88DB439AB27B681A8200BF0C37F7
S31520002AD0BD465DF8047B704780B483B000AF786054
S31520002AE00B467B8013463B807A883B8813439AB2F9
S31520002AF07B68A3F8482000BF0C37BD465DF8047BF1
S31520002B00704780B483B000AF78600B467B80134655
S31520002B107B707B78002B08D07B689B899AB27B8858
S31520002B2013439AB27B689A8109E07B689B899AB2A3
S31520002B307B88DB439BB213409AB27B689A8100BFA5
S31520002B400C37BD465DF8047B704780B483B000AF78
S31520002B5078600B46FB70FB78002B08D07B689B883F
S31520002B609BB243F008039AB27B689A8007E07B68A1
S31520002B709B889BB223F008039AB27B689A8000BF99
S31520002B800C37BD465DF8047B704780B483B000AF38
S31520002B9078607B681B899BB223F007039AB27B6817
S31520002BA01A8100BF0C37BD465DF8047B704780B59F
S31520002BB082B000AF78600B467B807B8819467868A8
S31520002BC000F088F87B681B899BB243F007039AB212
S31520002BD07B681A8100BF0837BD4680BD80B584B0AA
S31520002BE000AFF860084611461A4603467B810B461D
S31520002BF03B811346FB807B89602B06D1FB88398974
S31520002C000122F86800F0BFF905E0FB883989012226
S31520002C10F86800F075F97B891946F86800F05AF8CB
S31520002C20FB681B899BB243F007039AB2FB681A81A3
S31520002C3000BF1037BD4680BD80B586B000AFF860B6
S31520002C40084611461A4603467B810B463B811346AE
S31520002C50FB800023FB82FB883A897989F86800F09B
S31520002C60A9F8FB681B89FB82FB8A23F00703FB82FA
S31520002C70FB8A43F00703FB82FB8A23F07003FB8267
S31520002C80FB8A43F07003FB82FB68FA8A1A8100BF35
S31520002C901837BD4680BD80B584B000AFF8600846C1
S31520002CA011461A4603467B810B463B811346FB8021
S31520002CB0FB883A897989F86800F07CF8FB681B89DB
S31520002CC09BB243F480439AB2FB681A8100BF103747
S31520002CD0BD4680BD80B485B000AF78600B467B8052
S31520002CE00023FB817B681B89FB81FB8923F0700312
S31520002CF0FB81FA897B881343FB817B68FA891A81D9
S31520002D0000BF1437BD465DF8047B704780B483B09E
S31520002D1000AF78600B467B807B689B889BB223F054
S31520002D2070039AB27B689A807B689B889AB27B886C
S31520002D3013439AB27B689A8000BF0C37BD465DF874
S31520002D40047B704780B483B000AF78600B467B80ED
S31520002D507B681B899BB223F007039AB27B681A8192
S31520002D607B681B899AB27B8813439AB27B681A8147
S31520002D7000BF0C37BD465DF8047B704780B483B036
S31520002D8000AF78600B467B807B681B899BB223F063
S31520002D9080039AB27B681A817B681B899AB27B88EA
S31520002DA013439AB27B681A8100BF0C37BD465DF883
S31520002DB0047B704780B487B000AFF86008461146A0
S31520002DC01A4603467B810B463B811346FB80002334
S31520002DD0FB82FB681B89FB82FB8ADBB2FB82FB88BA
S31520002DE01B029AB23B8913439AB27B8913439AB248
S31520002DF0FB8A1343FB82FB68FA8A1A8100BF1C37C1
S31520002E00BD465DF8047B704780B487B000AFF8609C
S31520002E10084611461A4603467B810B463B811346DC
S31520002E20FB800023FB820023BB8200237B82FB687E
S31520002E301B89FB82FB681B8BBB82FB681B8C7B82FE
S31520002E40FB8A23F00703FB82FA8A7B891343FB82E2
S31520002E50BB8A23F4407323F00303BB82BB8A43F46B
S31520002E60807343F00103BB827B8A23F022037B829B
S31520002E70FB881B019AB23B8913439AB27B8A134380
S31520002E807B82FB68FA8A1A81FB68BA8A1A83FB68F6
S31520002E907A8A1A8400BF1C37BD465DF8047B7047CA
S31520002EA080B483B000AF78600B46FB70FB78002BB4
S31520002EB008D07B689B889BB243F080039AB27B68DC
S31520002EC09A8007E07B689B889BB223F080039AB2A6
S31520002ED07B689A8000BF0C37BD465DF8047B70473F
S31520002EE080B483B000AF78600B467B807B687A889D
S31520002EF0A3F8502000BF0C37BD465DF8047B704711
S31520002F0080B487B000AFF860084611461A460346DB
S31520002F107B810B463B811346FB800023FB820023EB
S31520002F20BB82FB681B8C9BB223F001039AB2FB6821
S31520002F301A84FB681B8BFB82FB681B8CBB82FB8A7B
S31520002F4023F0F303FB82FB881B019AB23B891343D0
S31520002F509AB2FB8A1343FB82BB8A23F00A03BB8205
S31520002F607A89BB8A13439BB243F00103BB82FB6879
S31520002F70FA8A1A83FB68BA8A1A8400BF1C37BD46B0
S31520002F805DF8047B704780B487B000AFF8600846D0
S31520002F9011461A4603467B810B463B811346FB802E
S31520002FA00023FB820023BB8200237B82FB681B8CD1
S31520002FB09BB223F010039AB2FB681A84FB681B8B22
S31520002FC0FB82FB681B8CBB827B891B017B82FB8A75
S31520002FD023F440731B051B0DFB82FB881B039AB24F
S31520002FE0FB8A1343FB823B891B029AB2FB8A13435B
S31520002FF0FB82BB8A23F0A003BB827A8ABB8A134357
S315200030009BB243F01003BB82FB68FA8A1A83FB68E3
S31520003010BA8A1A8400BF1C37BD465DF8047B704708
S3152000302080B487B000AFF860084611461A460346BA
S315200030307B810B463B811346FB800023FB820023CA
S31520003040BB8200237B82FB681B8C9BB223F480739C
S315200030509AB2FB681A84FB689B8BFB82FB681B8CED
S31520003060BB827B891B027B82FB8A23F0F303FB82D4
S31520003070FB881B019AB23B8913439AB2FB8A1343FE
S31520003080FB82BB8A23F42063BB827A8ABB8A1343E2
S315200030909BB243F48073BB82FB68FA8A9A83FB68EF
S315200030A0BA8A1A8400BF1C37BD465DF8047B704778
S315200030B080B487B000AFF860084611461A4603462A
S315200030C07B810B463B811346FB800023FB8200233A
S315200030D0BB8200237B82FB681B8C9BB223F480532C
S315200030E09AB2FB681A84FB689B8BFB82FB681B8C5D
S315200030F0BB827B891B037B82FB8A23F440731B05DF
S315200031001B0DFB823B891B029AB2FB8A1343FB826F
S31520003110FB881B039AB2FB8A1343FB82BB8A23F4E8
S3152000312000535B045B0CBB827A8ABB8A13439BB237
S3152000313043F48053BB82FB68FA8A9A83FB68BA8A77
S315200031401A8400BF1C37BD465DF8047B704700BF5C
S3152000315080B400AF164B1B68154A43F00103136079
S31520003160134B00229A60124B1B68114A23F0A85376
S3152000317023F4102313600E4B0E4A5A600C4B0E4A52
S31520003180C3F884200A4B0D4AC3F88820084B1B68D5
S31520003190074A23F480231360054B0022DA60044B90
S315200031A00022C3F88C2000BFBD465DF8047B704723
S315200031B00038024010300024003000200030002467
S315200031C080B483B000AF0346FB71064B00221A7011
S315200031D0044AFB79137000BF0C37BD465DF8047BAB
S315200031E0704700BF0238024080B582B000AF00238E
S315200031F03B600023FB710023BB71312000F08AFD68
S315200032000346BB713B6801333B603B68B3F5A04F77
S3152000321002D0BB79002BF0D0312000F07BFD034695
S31520003220002B02D00123FB7101E00023FB71FB7907
S3152000323018460837BD4680BD80B485B000AF03462A
S31520003240FB710023FB600A4B1B68FB60FB6823F0C5
S31520003250F803FB60FB79DB00FA681343FB60044A42
S31520003260FB68136000BF1437BD465DF8047B7047CA
S315200032700038024080B483B000AF0346FB71044A95
S31520003280FB79136000BF0C37BD465DF8047B7047A1
S315200032900000474280B483B000AF0346FB710D4B5C
S315200032A000221A700B4B00221A70FB79012B02D0D8
S315200032B0042B04D007E0074B01221A7003E0054BCC
S315200032C005221A7000BF00BF0C37BD465DF8047B8F
S315200032D0704700BF7038024080B483B000AF034609
S315200032E0FB71044AFB79136000BF0C37BD465DF8BD
S315200032F0047B7047800E474280B485B000AFF860EB
S31520003300B9607A603B607B689A01BB681A433B6868
S315200033105B08013B1B041A43FB681A43BB691B0667
S31520003320044913434B6000BF1437BD465DF8047B48
S31520003330704700BF0038024080B483B000AF034618
S31520003340FB71044AFB79136000BF0C37BD465DF85C
S31520003350047B70476000474280B483B000AF78603A
S3152000336039607B689A013B681B0705491343C1F8FE
S31520003370843000BF0C37BD465DF8047B704700BF24
S315200033800038024080B483B000AF0346FB71044A84
S31520003390FB79136000BF0C37BD465DF8047B704790
S315200033A06800474280B485B000AFF860B9607A60A3
S315200033B0FB689A01BB681B061A437B681B070549F5
S315200033C01343C1F8883000BF1437BD465DF8047B2F
S315200033D0704700BF0038024080B483B000AF034678
S315200033E0FB71044AFB79136000BF0C37BD465DF8BC
S315200033F0047B70477000474280B483B000AF034619
S31520003400FB71044AFB79136000BF0C37BD465DF89B
S31520003410047B70474C00474280B485B000AF78608B
S3152000342039600023FB600B4B9B68FB60FB6823F035
S31520003430EC63FB607A683B681343FA681343FB60CE
S31520003440044AFB68936000BF1437BD465DF8047BD1
S31520003450704700BF0038024080B485B000AF786066
S3152000346039600023FB600B4B9B68FB60FB6823F0F5
S315200034707843FB607A683B681343FA681343FB6022
S31520003480044AFB68936000BF1437BD465DF8047B91
S31520003490704700BF0038024080B485B000AF786026
S315200034A00023FB60094B9B68FB60FB6823F003034A
S315200034B0FB60FA687B681343FB60044AFB689360F1
S315200034C000BF1437BD465DF8047B704700380240C4
S315200034D080B400AF054B9B68DBB203F00C03DBB274
S315200034E01846BD465DF8047B704700BF0038024091
S315200034F080B485B000AF78600023FB60094B9B68E1
S31520003500FB60FB6823F0F003FB60FA687B681343DB
S31520003510FB60044AFB68936000BF1437BD465DF824
S31520003520047B70470038024080B485B000AF7860D5
S315200035300023FB60094B9B68FB60FB6823F4E05388
S31520003540FB60FA687B681343FB60044AFB68936060
S3152000355000BF1437BD465DF8047B70470038024033
S3152000356080B485B000AF78600023FB600A4B9B686F
S31520003570FB60FB6823F46043FB607B68DB00FA6832
S315200035801343FB60044AFB68936000BF1437BD46B3
S315200035905DF8047B704700BF0038024080B489B0D4
S315200035A000AF78600023BB6100237B610023FB61B1
S315200035B002233B610023FB600223BB604A4B9B68CE
S315200035C003F00C03BB61BB69082B11D0BB69082B28
S315200035D044D8BB69002B03D0BB69042B04D03DE043
S315200035E07B68424A1A603DE07B68414A1A6039E0AE
S315200035F03D4B5B689B0D03F00103FB603A4B5B6818
S3152000360003F03F03BB60FB68002B0CD0384ABB6835
S31520003610B2FBF3F3344A52689209C2F3080202FB62
S3152000362003F3FB610BE0314ABB68B2FBF3F32E4A8E
S3152000363052689209C2F3080202FB03F3FB612A4B8C
S315200036405B681B0C03F0030301335B003B61FA69E3
S315200036503B69B2FBF3F27B681A6003E07B68234A7E
S315200036601A6000BF204B9B6803F0F003BB61BB6967
S315200036701B09BB611F4ABB6913441B78DBB27B6104
S315200036807B681A687B69DA407B685A60164B9B68B0
S3152000369003F4E053BB61BB699B0ABB61154ABB6956
S315200036A013441B78DBB27B617B685A687B69DA40FE
S315200036B07B689A600C4B9B6803F46043BB61BB69D3
S315200036C05B0BBB610B4ABB6913441B78DBB27B6186
S315200036D07B685A687B69DA407B68DA6000BF2437EA
S315200036E0BD465DF8047B7047003802400024F40094
S315200036F000127A0020A7002080B485B000AF786041
S315200037000023FB607B6803F44073B3F5407F11D13F
S315200037100F4B9B68FB60FB6823F4F813FB607B6808
S3152000372023F0704323F44073FA681343FB60084A7E
S31520003730FB689360064B1A6F7B68C3F30B0304493F
S3152000374013430B6700BF1437BD465DF8047B7047F3
S315200037500038024080B483B000AF0346FB71044AB0
S31520003760FB79136000BF0C37BD465DF8047B7047BC
S315200037703C0E474280B483B000AF0346FB71044A37
S31520003780FB79136000BF0C37BD465DF8047B70479C
S31520003790400E474280B483B000AF7860044A7B680D
S315200037A0136000BF0C37BD465DF8047B704700BF31
S315200037B05C01474280B485B000AF78600023FB608F
S315200037C00B4BD3F88C30FB60FB6823F01F03FB60A8
S315200037D07B68013BFA681343FB60054AFB68C2F825
S315200037E08C3000BF1437BD465DF8047B704700BFA0
S315200037F00038024080B485B000AF78600023FB60BB
S315200038000B4BD3F88C30FB60FB6823F4F853FB603A
S315200038107B68013B1B02FA681343FB60044AFB6882
S31520003820C2F88C3000BF1437BD465DF8047B704764
S315200038300038024080B485B000AF78600023FB607A
S315200038400A4BD3F88C30FB60FB6823F44013FB60F3
S31520003850FA687B681343FB60044AFB68C2F88C3025
S3152000386000BF1437BD465DF8047B70470038024020
S3152000387080B485B000AF78600023FB600A4BD3F894
S315200038808C30FB60FB6823F44003FB60FA687B689E
S315200038901343FB60044AFB68C2F88C3000BF143720
S315200038A0BD465DF8047B70470038024080B485B081
S315200038B000AF78600023FB600A4BD3F88C30FB60A6
S315200038C0FB6823F44033FB60FA687B681343FB6094
S315200038D0044AFB68C2F88C3000BF1437BD465DF839
S315200038E0047B70470038024080B483B000AF786014
S315200038F0044A7B68136000BF0C37BD465DF8047B25
S31520003900704700BFE011474280B483B000AF7860B3
S315200039100B46FB70FB78002B06D00A4B1A6B094925
S315200039207B6813430B6306E0064B1A6B7B68DB430D
S31520003930044913400B6300BF0C37BD465DF8047B7A
S31520003940704700BF0038024080B483B000AF786073
S315200039500B46FB70FB78002B06D00A4B5A6B0949A5
S315200039607B6813434B6306E0064B5A6B7B68DB434D
S31520003970044913404B6300BF0C37BD465DF8047BFA
S31520003980704700BF0038024080B483B000AF786033
S315200039900B46FB70FB78002B06D00A4B9A6B094925
S315200039A07B6813438B6306E0064B9A6B7B68DB438D
S315200039B0044913408B6300BF0C37BD465DF8047B7A
S315200039C0704700BF0038024080B483B000AF7860F3
S315200039D00B46FB70FB78002B06D00A4B1A6C094964
S315200039E07B6813430B6406E0064B1A6C7B68DB434B
S315200039F0044913400B6400BF0C37BD465DF8047BB9
S31520003A00704700BF0038024080B483B000AF7860B2
S31520003A100B46FB70FB78002B06D00A4B5A6C0949E3
S31520003A207B6813434B6406E0064B5A6C7B68DB438A
S31520003A30044913404B6400BF0C37BD465DF8047B38
S31520003A40704700BF0038024080B483B000AF786072
S31520003A500B46FB70FB78002B06D00A4B1A690949E6
S31520003A607B6813430B6106E0064B1A697B68DB43D0
S31520003A70044913400B6100BF0C37BD465DF8047B3B
S31520003A80704700BF0038024080B483B000AF786032
S31520003A900B46FB70FB78002B06D00A4B5A69094966
S31520003AA07B6813434B6106E0064B5A697B68DB4310
S31520003AB0044913404B6100BF0C37BD465DF8047BBB
S31520003AC0704700BF0038024080B483B000AF7860F2
S31520003AD00B46FB70FB78002B06D00A4B9A690949E6
S31520003AE07B6813438B6106E0064B9A697B68DB4350
S31520003AF0044913408B6100BF0C37BD465DF8047B3B
S31520003B00704700BF0038024080B483B000AF7860B1
S31520003B100B46FB70FB78002B06D00A4B1A6A094924
S31520003B207B6813430B6206E0064B1A6A7B68DB430D
S31520003B30044913400B6200BF0C37BD465DF8047B79
S31520003B40704700BF0038024080B483B000AF786071
S31520003B500B46FB70FB78002B06D00A4B5A6A0949A4
S31520003B607B6813434B6206E0064B5A6A7B68DB434D
S31520003B70044913404B6200BF0C37BD465DF8047BF9
S31520003B80704700BF0038024080B483B000AF786031
S31520003B900B46FB70FB78002B06D00A4B1A6D0949A1
S31520003BA07B6813430B6506E0064B1A6D7B68DB4387
S31520003BB0044913400B6500BF0C37BD465DF8047BF6
S31520003BC0704700BF0038024080B483B000AF7860F1
S31520003BD00B46FB70FB78002B06D00A4B5A6D094921
S31520003BE07B6813434B6506E0064B5A6D7B68DB43C7
S31520003BF0044913404B6500BF0C37BD465DF8047B76
S31520003C00704700BF0038024080B483B000AF7860B0
S31520003C100B46FB70FB78002B06D00A4B9A6D0949A0
S31520003C207B6813438B6506E0064B9A6D7B68DB4306
S31520003C30044913408B6500BF0C37BD465DF8047BF5
S31520003C40704700BF0038024080B483B000AF786070
S31520003C500B46FB70FB78002B06D00A4B1A6E0949DF
S31520003C607B6813430B6606E0064B1A6E7B68DB43C4
S31520003C70044913400B6600BF0C37BD465DF8047B34
S31520003C80704700BF0038024080B483B000AF786030
S31520003C900B46FB70FB78002B06D00A4B5A6E09495F
S31520003CA07B6813434B6606E0064B5A6E7B68DB4304
S31520003CB0044913404B6600BF0C37BD465DF8047BB4
S31520003CC0704700BF0038024080B483B000AF03467F
S31520003CD00A46FB711346BB71BB79002B08D00C4BEF
S31520003CE01B78DAB20A49FB791343DBB20B7009E081
S31520003CF0074B1B78DAB2FB79DB43DBB2044913406E
S31520003D00DBB20B7000BF0C37BD465DF8047B7047F5
S31520003D100D38024080B487B000AF0346FB71002304
S31520003D20FB6000237B610023FB74FB795B09DBB21C
S31520003D30FB60FB68012B03D1124B1B687B6109E0FA
S31520003D40FB68022B03D10F4B1B6F7B6102E00D4BEF
S31520003D505B6F7B61FB7903F01F03FB607A69FB686D
S31520003D6022FA03F303F00103002B02D00123FB7494
S31520003D7001E00023FB74FB7C18461C37BD465DF82A
S31520003D80047B70470038024080B400AF054B5B6F60
S31520003D90044A43F08073536700BFBD465DF8047B39
S31520003DA0704700BF0038024080B485B000AF03469C
S31520003DB0FB710023FB73094BDA68FB791340002B58
S31520003DC002D00123FB7301E00023FB73FB7B184623
S31520003DD01437BD465DF8047B704700BF00380240AB
S31520003DE080B483B000AF0346FB71044AFB7913709D
S31520003DF000BF0C37BD465DF8047B70470E38024085
S31520003E0080B582B000AF78607B684B4A934208D178
S31520003E1001210120FFF718FE00210120FFF714FEE3
S31520003E2086E07B68454A934208D101210220FFF7AC
S31520003E300BFE00210220FFF707FE79E07B68404A4F
S31520003E40934208D101210420FFF7FEFD0021042022
S31520003E50FFF7FAFD6CE07B683A4A934208D10121CC
S31520003E600820FFF7F1FD00210820FFF7EDFD5FE0B8
S31520003E707B68354A934208D101211020FFF7E4FDE3
S31520003E8000211020FFF7E0FD52E07B682F4A934285
S31520003E9008D101212020FFF7D7FD00212020FFF7A0
S31520003EA0D3FD45E07B682A4A934208D10121402070
S31520003EB0FFF7CAFD00214020FFF7C6FD38E07B68EA
S31520003EC0244A934208D101218020FFF7BDFD00211D
S31520003ED08020FFF7B9FD2BE07B681F4A93420AD169
S31520003EE001214FF48070FFF7AFFD00214FF4807061
S31520003EF0FFF7AAFD1CE07B68184A93420AD10121EC
S31520003F004FF40070FFF7A0FD00214FF40070FFF77B
S31520003F109BFD0DE07B68124A934209D101214FF4A3
S31520003F208060FFF791FD00214FF48060FFF78CFD44
S31520003F3000BF0837BD4680BD000002400004024095
S31520003F4000080240000C024000100240001402400B
S31520003F5000180240001C02400020024000240240BB
S31520003F600028024080B487B000AF78603960002313
S31520003F707B6100233B610023FB6000237B6176E0AD
S31520003F8001227B6902FA03F33B613B681B683A69AD
S31520003F901340FB60FA683B699A4265D17B681A68D0
S31520003FA07B695B00032101FA03F3DB431A407B683C
S31520003FB01A607B681A683B681B7919467B695B0027
S31520003FC001FA03F31A437B681A603B681B79012BBD
S31520003FD003D03B681B79022B2ED17B689A687B69BC
S31520003FE05B00032101FA03F3DB431A407B689A60E6
S31520003FF07B689A683B685B7919467B695B0001FAA6
S3152000400003F31A437B689A607B685A687B699BB284
S31520004010194601238B40DB431A407B685A607B6834
S315200040205B683A68927911467A6992B201FA02F28D
S3152000403092B21A437B685A607B68DA687B699BB2C6
S315200040405B00032101FA03F3DB431A407B68DA6045
S315200040507B68DA683B68DB7919467B695B0001FA85
S3152000406003F31A437B68DA607B6901337B617B69E2
S315200040700F2B85D900BF00BF1C37BD465DF8047BDA
S31520004080704780B483B000AF78607B684FF6FF72CC
S315200040901A607B6800221A717B6800225A717B683D
S315200040A000229A717B680022DA7100BF0C37BD4668
S315200040B05DF8047B704780B485B000AF78600B460E
S315200040C07B804FF48033FB607A88FB681343FB6068
S315200040D0FA687B68DA617A887B68DA61FA687B68D5
S315200040E0DA617B68DB69FB607B68DB69FB6000BFAC
S315200040F01437BD465DF8047B704780B485B000AFA9
S3152000410078600B467B800023FB737B681A697B886B
S315200041101340002B02D00123FB7301E00023FB7325
S31520004120FB7B18461437BD465DF8047B704780B488
S3152000413083B000AF78607B681B699BB218460C374A
S31520004140BD465DF8047B704780B485B000AF7860CB
S315200041500B467B800023FB737B685A697B88134060
S31520004160002B02D00123FB7301E00023FB73FB7BB2
S3152000417018461437BD465DF8047B704780B483B07B
S3152000418000AF78607B685B699BB218460C37BD46EA
S315200041905DF8047B704780B483B000AF78600B462F
S315200041A07B807B687A881A8300BF0C37BD465DF812
S315200041B0047B704780B483B000AF78600B467B8069
S315200041C07B687A885A8300BF0C37BD465DF8047B2E
S315200041D0704780B483B000AF78600B467B8013466F
S315200041E07B707B78002B03D07B687A881A8302E069
S315200041F07B687A885A8300BF0C37BD465DF8047BFE
S31520004200704780B483B000AF78600B467B807A8895
S315200042107B685A6100BF0C37BD465DF8047B70474A
S3152000422080B483B000AF78600B467B807B685A6988
S315200042307B885A407B685A6100BF0C37BD465DF8C3
S31520004240047B704780B485B000AF78600B467B80D6
S3152000425013467B700023FB600023BB607A787B8843
S3152000426003F007039B0002FA03F3FB607B88DB085D
S315200042709BB21A467B68083253F822207B8803F0CB
S3152000428007039B000F2101FA03F3DB437988C90852
S3152000429089B2084602EA03017B6800F1080243F866
S315200042A022107B88DB089BB21A467B68083253F8BB
S315200042B02230FA681343BB607B88DB089BB21A4620
S315200042C07B680832B96843F8221000BF1437BD4610
S315200042D05DF8047B704700BF80B500AF01214FF029
S315200042E00050FFF711FC00214FF00050FFF70CFCA7
S315200042F000BF80BD80B485B000AF786039600023F0
S31520004300FB600023BB60144B1B68FB6040F6FE720B
S315200043107B6802FA03F3DB43FA681340FB603B68D1
S315200043201A683B685B681A433B689B681A433B687C
S31520004330DB681343BB60BA687B6802FA03F3FA684A
S315200043401343FB60044AFB68136000BF1437BD4665
S315200043505DF8047B704700BF0074004080B483B0D2
S3152000436000AF78607B6800221A607B6800225A6062
S315200043707B6800229A607B680022DA6000BF0C37D7
S31520004380BD465DF8047B704780B483B000AF78608B
S315200043900B46FB70FB78002B09D00D4B1A680121C8
S315200043A07B6801FA03F30A4913430B6009E0084BC3
S315200043B01A6801217B6801FA03F3DB4304491340A1
S315200043C00B6000BF0C37BD465DF8047B704700BF0D
S315200043D00074004080B483B000AF78600B46FB7059
S315200043E0FB78002B0AD00E4B5A687B681B090121EB
S315200043F001FA03F30A4913434B600AE0084B5A6853
S315200044007B681B09012101FA03F3DB4304491340AE
S315200044104B6000BF0C37BD465DF8047B704700BF7C
S315200044200074004080B483B000AF0346FB71FB7973
S31520004430002B06D0094B5B68084A43F00303536000
S3152000444005E0064B5B68054A23F00303536000BF73
S315200044500C37BD465DF8047B704700BF00740040F2
S3152000446080B485B000AFF860B9601346FB71FB7964
S31520004470002B09D00C4B1A68B968FB6801FA03F3C4
S31520004480094913430B6009E0074B1A68B968FB68B2
S3152000449001FA03F3DB43044913400B6000BF1437D2
S315200044A0BD465DF8047B70470074004080B485B03B
S315200044B000AF78600B467B800023FB60084BFB60D7
S315200044C0FA687B6813440833FB60FB681A467B88CE
S315200044D0136000BF1437BD465DF8047B704700BFEC
S315200044E00074004080B485B000AF78600B467B80B6
S315200044F00023FB60084BFB60FA687B681344143387
S31520004500FB60FB681A467B88136000BF1437BD46E4
S315200045105DF8047B704700BF0074004080B485B00E
S3152000452000AF78600B467B8013463B800023FB6000
S315200045300023BB607B68082B05D17B881A023B8849
S315200045401343FB6004E07B881A043B881343FB601B
S31520004550074BBB607A68BB6813442033BB60BB68DB
S31520004560FA681A6000BF1437BD465DF8047B7047B1
S315200045700074004080B485B000AF78600023FB60F3
S31520004580084BFB607B689A08FB6813442C33FB605E
S31520004590FB681B689BB218461437BD465DF8047B42
S315200045A0704700BF0074004080B483B000AF7860CD
S315200045B00B46FB70FB78002B0AD00E4B1A684FF483
S315200045C080517B6801FA03F30A4913430B600AE022
S315200045D0084B1A684FF480517B6801FA03F3DB43DA
S315200045E0044913400B6000BF0C37BD465DF8047BC1
S315200045F0704700BF0074004080B485B000AFF860FB
S31520004600B9601346FB71FB79002B09D00C4B1A6855
S31520004610B968FB6801FA03F3094913430B6009E003
S31520004620074B1A68B968FB6801FA03F3DB430449B0
S3152000463013400B6000BF1437BD465DF8047B7047FE
S315200046400074004080B485B000AF786039600023E4
S31520004650FB730A4B5A6B39687B6801FA03F31340E4
S31520004660002B02D00123FB7301E00023FB73FB7BAD
S3152000467018461437BD465DF8047B70470074004029
S3152000468080B483B000AF7860396006493A687B68A9
S3152000469002FA03F34B6300BF0C37BD465DF8047B7B
S315200046A0704700BF0074004080B485B000AF7860CA
S315200046B039600023FB730023BB60104B1A683968EE
S315200046C07B6801FA03F31340BB600C4B5A6B3968C5
S315200046D07B6801FA03F31340002B05D0BB68002B3F
S315200046E002D00123FB7301E00023FB73FB7B1846FA
S315200046F01437BD465DF8047B704700BF0074004048
S3152000470080B483B000AF7860396006493A687B6828
S3152000471002FA03F34B6300BF0C37BD465DF8047BFA
S31520004720704700BF0074004080B483B000AF0346DA
S31520004730FB71FB7903F01F03012202FA03F1064AFB
S3152000474097F907305B0942F8231000BF0C37BD46A6
S315200047505DF8047B704700BF00E100E080B483B0C1
S3152000476000AF03463960FB7197F90730002B0BDA4F
S315200047703B68DAB20C49FB7903F00F03043B1201C4
S31520004780D2B20B441A7609E03B68DAB2074997F9A8
S3152000479007301201D2B20B4483F8002300BF0C3736
S315200047A0BD465DF8047B704700ED00E000E100E0C7
S315200047B080B586B000AF786039607B6800229A6148
S315200047C07B689A697B685A617B685A697B68DA617B
S315200047D007F10C031846FBF78BFF0023BB7400235D
S315200047E0FB7400233B7501237B751C4803F0C4F939
S315200047F00023BB750023FB750023BB730023FB73CB
S3152000480002233B7403237B740723BB8107F10C032C
S3152000481019461348FBF7D8FD0346002B02D1114851
S3152000482003F0AAF907F10C0319460F48FBF7CCFD54
S315200048300346002B02D10D4803F09EF902211420D5
S31520004840FFF78CFF1420FFF76FFF01220221044897
S31520004850FCF78CFB00BF1837BD4680BD409A002070
S3152000486000640040649A0020006800407C9A002082
S31520004870B0B58AB002AF786039607B689B685A49C8
S315200048801846FCF791FB0346012B02D0574803F04C
S3152000489073F97B68DB69072B00F39F807B689B6835
S315200048A007F1080200211846FCF766F9BB681B09C8
S315200048B0DBB27A68526903F07F03D8B2796813466F
S315200048C09B0013445B0013440B44203302461A70AA
S315200048D0BB68DBB27A68526903F00F03D8B27968F5
S315200048E013469B0013445B0013440B4421330246BA
S315200048F01A70BB7C7A68526903F00F03D8B27968C4
S3152000490013469B0013445B0013440B442233024698
S315200049101A700023FB7716E0FB7F7A685269F97FCD
S3152000492007F12000034413F80D4C786813469B00CA
S3152000493013445B00134403440B44233322461A706A
S31520004940FB7F0133FB777B685A69796813469B00A6
S3152000495013445B0013440B4422331B78FA7F9A429C
S31520004960DAD37B68DB68002B25D07B68DC687B6824
S315200049701D697B685A69796813469B0013445B005E
S3152000498013440B4420331B7819017B685A697868D5
S3152000499013469B0013445B001344034421331B78C6
S315200049A00B4400932B4622460021002003F020FDD5
S315200049B00F4B01221A607B685B6901335A4203F070
S315200049C0070302F0070258BF53427A6853617B6897
S315200049D0DB695A1C7B68DA6102E0064803F0CCF8F2
S315200049E000BF2037BD46B0BD03000012949A0020B8
S315200049F054AE0020BC9A002090B484B000AF7860FA
S31520004A0039607B68DB69002B55DD7B689A6979689C
S31520004A1013469B0013445B0013440B4420331A783F
S31520004A203B681A707B689A69796813469B00134421
S31520004A305B0013440B4421331A783B685A707B6819
S31520004A409A69796813469B0013445B0013440B4410
S31520004A5022331A783B689A700023FB7313E07B6835
S31520004A609A69F87BF97B7C6813469B0013445B00AC
S31520004A7013442344034423331A783B680B44DA70E7
S31520004A80FB7B0133FB733B689B78FA7B9A42E6D328
S31520004A907B689B6901335A4203F0070302F0070241
S31520004AA058BF53427A6893617B68DB695A1E7B68DC
S31520004AB0DA61002300E0012318461037BD4690BC7A
S31520004AC0704780B58AB000AF786039607B689B6894
S31520004AD03B620023FB773B681B781B013A685278C0
S31520004AE01344BB6000237B7400233B743B689B7894
S31520004AF0082B02D93B6808229A703B689B78BB74C6
S31520004B00002387F8273010E097F8272097F82730DA
S31520004B1039680A44D27807F128010B4403F8152C8A
S31520004B2097F82730013387F827303B689B7897F82A
S31520004B3027209A42E8D307F108031946386AFBF77B
S31520004B409BFE0346FB77FB7F042B04D10F4803F023
S31520004B5013F8012316E000BFFB7F1946386AFBF7DE
S31520004B605CFF0346022BF7D0FB7F1946386AFBF71A
S31520004B7054FF0346002B04D1054802F0FDFF012314
S31520004B8000E0002318462837BD4680BDDC9A002069
S31520004B90F09A002080B400AF00BFBD465DF8047BCC
S31520004BA0704780B586B000AF4548FFF729F94548DC
S31520004BB0FBF7E6FB4448FBF7E3FB01214FF00070CF
S31520004BC0FEF702FF01214FF08060FEF7FDFE012176
S31520004BD00220FEF799FE092209213948FFF732FB08
S31520004BE0092208213648FFF72DFB07F11003184646
S31520004BF0FFF747FA4FF400733B6102233B7500230E
S31520004C00BB750023FB7502237B7507F1100319463C
S31520004C102B48FFF7A7F94FF480733B6102233B75BE
S31520004C200023BB750123FB7502237B7507F1100357
S31520004C3019462348FFF796F9092206212048FFF74F
S31520004C4001FB092205211E48FFF7FCFA40233B61A0
S31520004C5002233B750023BB750023FB7502237B755E
S31520004C6007F1100319461648FFF77CF920233B610C
S31520004C7002233B750023BB750123FB7502237B753D
S31520004C8007F1100319460E48FFF76CF90023BB7293
S31520004C900023FB7201233B7300233B8000237B8090
S31520004CA00023BB800023FB8000233B8101237B73F1
S31520004CB03B461846FBF759FC00BF1837BD4680BD5A
S31520004CC000040240006400400068004080B586B0C1
S31520004CD000AF01214FF00050FEF776FE07F11003DA
S31520004CE01846FFF7CEF920233B6103233B750023AB
S31520004CF0FB7507F1100319460F48FFF733F9FFF745
S31520004D00EBFA3B461846FFF729FB00233B600023BE
S31520004D107B600023FB603B4619461020FFF7EAFA2A
S31520004D2001211020FFF730FB00210820FFF7DAFBD6
S31520004D3000BF1837BD4680BD0000024080B584B054
S31520004D4000AF01214FF48040FEF75EFE07210120CF
S31520004D50FBF792F9FBF70CFA3B461846FBF794FA59
S31520004D6080233B6000233B710C237B710123BB71A5
S31520004D703B461846FBF716FA07F108031846FFF7D5
S31520004D8080F90223BB6001233B730123BB730023FD
S31520004D90FB7301237B7307F1080319461848FFF7B5
S31520004DA0E1F80123BB6001233B730123BB7300237E
S31520004DB0FB7301237B7307F1080319461048FFF79D
S31520004DC0D1F8012202210E48FFF703FA0122012120
S31520004DD00B48FFF7FEF98023BB6000233B730023BB
S31520004DE0BB730023FB7301237B7307F1080319466A
S31520004DF00348FFF7B7F800BF1037BD4680BD00BF98
S31520004E000004024080B483B000AFEFF314833B600C
S31520004E103B6823F003037B607B6883F3148800BF21
S31520004E20094B4FF404725A61074B5B69064A43F0FB
S31520004E3008035361054B4FF000425A6000BF0C3700
S31520004E40BD465DF8047B704700ED00E030EF00E0E2
S31520004E5080B500AF01210820FEF7B6FD012108200C
S31520004E60FEF7F2FE00BF80BD80B400AF124A02E01A
S31520004E70002342F8043B114B9A42F9D300BFBD46AA
S31520004E805DF8047B704780B500AFFFF7EDFFFFF7B5
S31520004E9081FEFFF786FEFFF719FFFFF74FFFFFF7AB
S31520004EA0B1FFFFF7D5FF00BF80BD80B400AF00BFC4
S31520004EB0BD465DF8047B704748AE0020D031012006
S31520004EC080B483B000AF78607B680A3318460C370D
S31520004ED0BD465DF8047B704780B487B000AFF860AC
S31520004EE0B9607A6000237B6112E07B699B00BA6817
S31520004EF013441B68FA689A4207D17B697A6813447F
S31520004F001B78002B01D0012306E07B6901337B61EE
S31520004F107B69072BE9DD002318461C37BD465DF863
S31520004F20047B704780B487B000AFF860B9607A60C0
S31520004F3000237B6112E07B699B00BA6813441B68DF
S31520004F40FA689A4207D17B697A6813441B78002B4A
S31520004F5001D07B6907E07B6901337B617B69072B85
S31520004F60E9DD4FF0FF3318461C37BD465DF8047B5C
S31520004F70704780B5A2B000AF7860396007F10800AD
S31520004F803B687A68802103F08BFF07F108031A46F5
S31520004F900349044803F0CAFA00BF8837BD4680BDDE
S31520004FA0738B0020A4A8002080B483B000AF786063
S31520004FB0044A7B6892FBF3F318460C37BD465DF82E
S31520004FC0047B70470087930380B582B000AF78607A
S31520004FD039603868FFF7E8FF02467B689A6000BFB1
S31520004FE00837BD4680BD80B483B000AF7860396095
S31520004FF07B683A681A6100BF0C37BD465DF8047BB2
S31520005000704780B483B000AF786039607B683A68B7
S315200050109A6000BF0C37BD465DF8047B704780B5AB
S3152000502082B000AF786039607B681B69012B07D19D
S315200050307B6800221A6100210748FFF79AFF06E0E5
S315200050407B6801221A6100210448FFF792FF00BF06
S315200050500837BD4680BD00BF749C0020989C002068
S3152000506080B584B002AF786039607B68DB68012B3D
S315200050700FD17B681B69012B03D100210748FFF75D
S3152000508078FF00230093064B7A680021054803F039
S31520005090AFF900BF0837BD4680BD00BFBC9C0020CD
S315200050A06150002020A1070080B584B002AF78604F
S315200050B039607B68DB68012B07D17B680022DA60C8
S315200050C000210B48FFF755FF0EE07B680122DA60CE
S315200050D000210848FFF74DFF00230093064B7A680E
S315200050E00021064803F084F900BF0837BD4680BD7D
S315200050F0C89C0020BC9C00206150002020A10700F5
S3152000510080B49DB000AFF860B9607A600023FB667A
S315200051100023BB6623E0BB6EBA6813441B78002BC2
S315200051201AD0BB6E9B00FA6813441A68FB6E9B006C
S3152000513007F170010B4443F8402CBB6E9B007A6844
S3152000514013441A68FB6E9B0007F170010B4443F869
S31520005150602CFB6E0133FB66BB6E0133BB66BB6EF8
S31520005160072BD8DD01237B6656E07B6E9B0007F17B
S315200051707002134453F8403C7B657B6E9B0007F11D
S315200051807002134453F8603C3B657B6E013B3B66E3
S3152000519020E03B6E591C3B6E9B0007F170021344C6
S315200051A053F8402C8B0007F170010B4443F8402C38
S315200051B03B6E591C3B6E9B0007F17002134453F85B
S315200051C0602C8B0007F170010B4443F8602C3B6E7A
S315200051D0013B3B663B6E002B09DB3B6E9B0007F1D8
S315200051E07002134453F8403C7A6D9A42D1DB3B6EF1
S315200051F001339B0007F1700213447A6D43F8402C6B
S315200052003B6E01339B0007F1700213443A6D43F85D
S31520005210602C7B6E01337B667A6EFB6E9A42A4DB32
S315200052200023FB651FE0FB6D9B00FA681A44FB6DAB
S315200052309B0007F170010B4453F8403C1360FB6D53
S315200052409B007A681A44FB6D9B0007F170010B44A2
S3152000525053F8603C1360FB6DBA68134401221A7040
S31520005260FB6D0133FB65FA6DFB6E9A42DBDBFB6E51
S31520005270BB6513E0BB6D9B00FA68134400221A60DD
S31520005280BB6D9B007A68134400221A60BB6DBA6816
S31520005290134400221A70BB6D0133BB65BB6D072B0F
S315200052A0E8DD00BF00BF7437BD465DF8047B70475C
S315200052B080B483B000AF786039607B683A685A6200
S315200052C000BF0C37BD465DF8047B704780B483B0C1
S315200052D000AF786039607B683A681A6200BF0C3785
S315200052E0BD465DF8047B704780B586B000AF786018
S315200052F039603B687B614C233B727B68D3F8FC307A
S31520005300DBB27B720123BB727B687A692A3253F83F
S315200053102230DBB2FB7207F108031A463E493F48AA
S3152000532003F004F90023002B08D07B687A692A321F
S3152000533053F8223019463A48FFF71BFE7B69002BAB
S3152000534060DB7B68D3F8EC307A699A425ADA7A685D
S315200053507B691344A0331B78002B53D07B687A6972
S315200053602A3253F8223019462E48FFF702FE7A6871
S315200053707B691344A03300221A707B68D3F8EC3083
S315200053805A1E7B68C3F8EC207B6803F1A8007B6873
S3152000539003F1A0017B68C8331A46FFF7B1FE7B688C
S315200053A0D3F8EC301A462049204803F0BFF87B6832
S315200053B0D3F8FC007B6803F1A8017B68A0331A466A
S315200053C0FFF7B0FD03461A461949184803F0AEF810
S315200053D00023002B16D07B68D3F8FC007B6803F1F2
S315200053E0A8017B68A0331A46FFF79CFD03461946A1
S315200053F01048FFF7BEFD7B68D3F8EC3019460E48FF
S31520005400FFF7B7FD7B687A693232002143F8221014
S3152000541000BF1837BD4680BDC34A0020C4AC00205B
S31520005420D89C0020F89C0020B152002050A80020D3
S31520005430CD520020209D0020389D002080B485B0CC
S3152000544000AF786039600023FB607B685B69002BC6
S3152000545001D10123FB60FB6818461437BD465DF871
S31520005460047B704780B485B000AF786039607B6874
S315200054709B68054A92FBF3F3FB60FB6818461437DA
S31520005480BD465DF8047B70470087930380B485B0E2
S3152000549000AF786039607B681B69FB60FB68184643
S315200054A01437BD465DF8047B704780B487B000AFE3
S315200054B0F860B9607A6000237B6110E07B69FA6846
S315200054C013441B78002B07D07B699B00BA681344D2
S315200054D01B687A689A4224D07B6901337B617B6999
S315200054E0072BEBDD00233B6117E03B69FA68134489
S315200054F01B7883F00103DBB2002B0BD03B699B00AA
