S01600002E2F44656275672F5254532D4C61622E73313936
S3152000000000BFDFF814D006F022FF03F0FDFF06F054
S3152000001030BFFEE700BF000000C0012080B582B0DF
S3152000002000AF78607B680E4A93420AD101214FF0D7
S31520000030007004F08FFD00214FF0007004F08AFD5F
S3152000004009E001214FF0806004F084FD00214FF08B
S31520000050806004F07FFD00BF0837BD4680BD00BF2D
S315200000600064004080B485B000AF7860396000231A
S31520000070FB730023BB607B681B6823F002027B684E
S315200000801A607B681B6843F001027B681A6002E0F5
S31520000090BB680133BB607B685B6803F00103012BFF
S315200000A004D0BB684FF6FF729342F1D17B685B6840
S315200000B003F00103012B02D00023FB739CE03B6875
S315200000C09B79012B06D17B681B6843F080027B68F5
S315200000D01A6005E07B681B6823F080027B681A6043
S315200000E03B68DB79012B06D17B681B6843F0400215
S315200000F07B681A6005E07B681B6823F040027B68FA
S315200001001A603B681B7A012B06D17B681B6843F07B
S3152000011020027B681A6005E07B681B6823F02002BA
S315200001207B681A603B685B7A012B06D17B681B686B
S3152000013043F010027B681A6005E07B681B6823F099
S3152000014010027B681A603B689B7A012B06D17B687C
S315200001501B6843F008027B681A6005E07B681B6811
S3152000016023F008027B681A603B68DB7A012B06D1F4
S315200001707B681B6843F004027B681A6005E07B6895
S315200001801B6823F004027B681A603B689B789A07F9
S315200001903B68DB781B061A433B681B791B041A4312
S315200001A03B685B791B051A433B681B88013B1A4356
S315200001B07B68DA617B681B6823F001027B681A6022
S315200001C00023BB6002E0BB680133BB607B685B68D1
S315200001D003F00103012B04D1BB684FF6FF72934253
S315200001E0F1D17B685B6803F00103012B02D1002368
S315200001F0FB7301E00123FB73FB7B18461437BD46D6
S315200002005DF8047B704790B484B000AF786000231B
S31520000210FB607B689B7A1A4601239340FB605A4B0E
S31520000220D3F80032584A43F00103C2F80032564B45
S31520000230D3F81C22FB68DB4353491340C1F81C3218
S315200002407B681B7B002B29D14F4BD3F80C22FB68F4
S31520000250DB434D491340C1F80C327B68DB881B0415
S315200002607A685288144648497A68927A104643EA50
S31520000270040200F1480341F833207B689B881B0465
S315200002807A681288144640497A68927A104643EA78
S31520000290040200F14803DB000B445A607B681B7B99
S315200002A0012B28D1384BD3F80C223749FB6813434E
S315200002B0C1F80C327B681B881B047A685288144666
S315200002C031497A68927A104643EA040200F14803DB
S315200002D041F833207B689B881B047A68D2881446B1
S315200002E029497A68927A104643EA040200F14803C3
S315200002F0DB000B445A607B68DB7A002B09D1224B4A
S31520000300D3F80422FB68DB431F491340C1F80432AB
S3152000031007E01D4BD3F804221B49FB681343C1F8A1
S3152000032004327B681B89002B08D1174BD3F8142283
S31520000330FB68DB4314491340C1F814327B681B89E0
S31520000340012B07D1104BD3F814220F49FB68134316
S31520000350C1F814327B685B7B012B07D10A4BD3F89B
S315200003601C220949FB681343C1F81C32064BD3F8FB
S315200003700032054A23F00103C2F8003200BF1037CD
S31520000380BD4690BC704700BF0064004080B483B077
S3152000039000AF78607B6800229A717B680022DA7150
S315200003A07B6800221A727B6800225A727B680022C0
S315200003B09A727B680022DA727B6800229A707B68C8
S315200003C00022DA707B6803221A717B6802225A7136
S315200003D07B6801221A8000BF0C37BD465DF8047B7E
S315200003E0704780B483B000AF0346FB71144BD3F83B
S315200003F00032134A43F00103C2F80032104BD3F8FF
S3152000040000320F4A23F47C5323F00E03C2F8003245
S315200004100B4BD3F80022FB791B0209491343C1F881
S315200004200032074BD3F80032054A23F00103C2F805
S31520000430003200BF0C37BD465DF8047B704700BF15
S315200004400064004080B483B000AF78600B46FB7038
S31520000450FB78002B06D07B681B6843F480327B68D0
S315200004601A6005E07B681B6823F480327B681A607B
S3152000047000BF0C37BD465DF8047B704780B483B05F
S3152000048000AF78600B46FB70FB78002B1ED07B6894
S315200004901B6843F080027B681A607B68D3F884313E
S315200004A043F480727B68C3F884217B68D3F8943147
S315200004B043F480727B68C3F894217B68D3F8A43117
S315200004C043F480727B68C3F8A4211DE07B681B6817
S315200004D023F080027B681A607B68D3F8843123F48A
S315200004E080727B68C3F884217B68D3F8943123F427
S315200004F080727B68C3F894217B68D3F8A43123F4F7
S3152000050080727B68C3F8A42100BF0C37BD465DF816
S31520000510047B704780B485B000AF786039600023D3
S31520000520FB737B689B6803F08063B3F1806F02D115
S315200005300023FB7315E07B689B6803F00063B3F12F
S31520000540006F02D10123FB730BE07B689B6803F0ED
S315200005508053B3F1805F02D10223FB7301E00423B1
S31520000560FB73FB7B042B00F09F80FB7B7A681833A0
S315200005701B0113441A68FB7B02F0010279681833C9
S315200005801B010B441A603B681B7A002B13D1FB7BA3
S315200005907A6818331B01134419683B681B685B058E
S315200005A03A68527A1A43FB7B0A43796818331B014F
S315200005B00B441A6015E0FB7B7A6818331B01134441
S315200005C019683B685B68DB003A68127A13433A681D
S315200005D0527A1A43FB7B0A43796818331B010B4472
S315200005E01A603B689B7A03F00F03DAB23B689A7273
S315200005F0FB7B7A6818331B01134404331A68FB7B90
S3152000060022F00F02796818331B010B4404331A6059
S31520000610FB7B7A6818331B01134404331A683B6842
S315200006209B7A1946FB7B0A43796818331B010B44D6
S3152000063004331A603B689B7B1A063B685B7B1B0472
S315200006401A433B681B7B1B021A433B68DB7A19461D
S31520000650FB7B0A4379681B010B4403F5C4731A60BC
S315200006603B689B7C1A063B685B7C1B041A433B68F1
S315200006701B7C1B021A433B68DB7B1946FB7B0A4328
S3152000068079681B010B4403F5C6731A60FB7B7A68F5
S3152000069018331B0113441A68FB7B42F00102796868
S315200006A018331B010B441A60FB7B18461437BD46D2
S315200006B05DF8047B704780B485B000AF78600B4648
S315200006C0FB700023FB60FB78022B12D0022B16DC7A
S315200006D0002B02D0012B06D011E07B689A68314BA3
S315200006E01340FB600EE07B689A682F4B1340FB603B
S315200006F008E07B689A682D4B1340FB6002E00023DC
S31520000700FB6000BFFB68294A93423DD0FB68274A1D
S3152000071093423CD8FB68264A93422CD0FB68244A55
S31520000720934234D8FB68204A93422AD0FB681E4A5B
S3152000073093422CD8FB681F4A934219D0FB681D4A66
S31520000740934224D8FB68174A934217D0FB68154A70
S3152000075093421CD8FB68002B04D0FB68164A9342B0
S3152000076003D014E00223FB6014E00023FB6011E0B9
S315200007700023FB600EE00023FB600BE00123FB60FF
S3152000078008E00123FB6005E00123FB6002E0002373
S31520000790FB6000BFFB68DBB218461437BD465DF828
S315200007A0047B7047030000040003000800000310C8
S315200007B000000110000100080100000480B483B08D
S315200007C000AF78600B46FB70FB78022B14D0022B0F
S315200007D019DC002B02D0012B07D014E07B689B6824
S315200007E043F080027B689A600EE07B689B6843F446
S315200007F000427B689A6007E07B689B6843F40002AE
S315200008007B689A6000E000BF00BF0C37BD465DF8EC
S31520000810047B704780B485B000AFF8600B467A60E1
S31520000820FB72FB7AFA681B331B0113441B68DBB28D
S3152000083003F00403DAB27B681A727B681B7A002BFA
S315200008400BD1FB7AFA681B331B0113441B685B0D23
S31520000850C3F30A027B681A600AE0FB7AFA681B3344
S315200008601B0113441B68DB0823F060427B685A6037
S31520000870FB7AFA681B331B0113441B68DBB203F0B7
S315200008800203DAB27B685A72FB7AFA681B331B01C1
S31520000890134404331B68DBB203F00F03DAB27B6820
S315200008A09A72FB7AFA681B331B01134404331B68C4
S315200008B01B0ADAB27B68DA74FB7AFA681B011344E6
S315200008C003F5DC731B68DAB27B68DA72FB7AFA68A6
S315200008D01B01134403F5DC731B681B0ADAB27B6821
S315200008E01A73FB7AFA681B01134403F5DC731B6841
S315200008F01B0CDAB27B685A73FB7AFA681B01134425
S3152000090003F5DC731B681B0EDAB27B689A73FB7ADD
S31520000910FA681B01134403F5DE731B68DAB27B68A1
S31520000920DA73FB7AFA681B01134403F5DE731B683E
S315200009301B0ADAB27B681A74FB7AFA681B01134425
S3152000094003F5DE731B681B0CDAB27B685A74FB7ADC
S31520000950FA681B01134403F5DE731B681B0EDAB21B
S315200009607B689A74FB7A002B06D1FB68DB6843F020
S315200009702002FB68DA6005E0FB681B6943F0200271
S31520000980FB681A6100BF1437BD465DF8047B7047CB
S3152000099080B483B000AF78600B46FB70FB78002BE9
S315200009A006D17B68DB6843F020027B68DA6005E0CD
S315200009B07B681B6943F020027B681A6100BF0C37F5
S315200009C0BD465DF8047B704780B485B000AF786083
S315200009D00B46FB700023FB73FB78002B06D17B684C
S315200009E0DB68DBB203F00303FB730BE0FB78012B20
S315200009F006D17B681B69DBB203F00303FB7301E0BE
S31520000A000023FB73FB7B18461437BD465DF8047B39
S31520000A10704780B485B000AF78600B46FB7000232A
S31520000A20FB734FF6FF73BB60FB78002B20D17B68EE
S31520000A301B6823F0030343F001027B681A6002E07F
S31520000A40BB68013BBB607B685B6803F00303012B3B
S31520000A5002D0BB68002BF3D17B685B6803F00303ED
S31520000A60012B02D00023FB734AE00123FB7347E0EE
S31520000A70FB78012B1ED17B681B6823F003027B6861
S31520000A801A6002E0BB68013BBB607B685B6803F0D1
S31520000A900303002B02D0BB68002BF3D17B685B6875
S31520000AA003F00303002B02D00023FB7328E001236D
S31520000AB0FB7325E0FB78022B20D17B681B6823F093
S31520000AC0030343F002027B681A6002E0BB68013B25
S31520000AD0BB607B685B6803F00303022B02D0BB6814
S31520000AE0002BF3D17B685B6803F00303022B02D053
S31520000AF00023FB7304E00123FB7301E00023FB7357
S31520000B00FB7B18461437BD465DF8047B704780B4DE
S31520000B1085B000AF78600023FB737B681B6823F0E9
S31520000B20030343F002027B681A607B685B6803F06C
S31520000B300303022B01D10123FB73FB7B18461437D9
S31520000B40BD465DF8047B704780B485B000AF786001
S31520000B504FF6FF73FB600023FB727B681B6823F054
S31520000B6002027B681A6002E0FB68013BFB607B683F
S31520000B705B6803F00203022B02D1FB68002BF3D142
S31520000B807B685B6803F00203022B01D00123FB7212
S31520000B90FB7A18461437BD465DF8047B704780B44F
S31520000BA085B000AF78600023FB737B689B69DBB25E
S31520000BB003F07003FB73FB7B18461437BD465DF8C4
S31520000BC0047B704780B485B000AF78600023FB7348
S31520000BD07B689B691B0EFB73FB7B18461437BD464F
S31520000BE05DF8047B704780B485B000AF7860002341
S31520000BF0FB737B689B691B0CFB73FB7B18461437C6
S31520000C00BD465DF8047B704780B485B000AFF860C0
S31520000C10B9601346FB71FB79002B06D0FB685A6935
S31520000C20BB681A43FB685A6106E0FB685A69BB68D1
S31520000C30DB431A40FB685A6100BF1437BD465DF896
S31520000C40047B704780B485B000AF7860396000239C
S31520000C50FB733B6803F47003002B0DD07B689A6905
S31520000C603B681340C3F31303002B02D00123FB730D
S31520000C7048E00023FB7345E03B6803F08073002BBC
S31520000C800DD07B685A683B681340C3F31303002BCF
S31520000C9002D00123FB7335E00023FB7332E03B686F
S31520000CA003F00063002B0DD07B689A683B681340E5
S31520000CB0C3F31303002B02D00123FB7322E000238E
S31520000CC0FB731FE03B6803F00073002B0DD07B689D
S31520000CD0DA683B681340C3F31303002B02D00123C9
S31520000CE0FB730FE00023FB730CE07B681A693B68FB
S31520000CF01340C3F31303002B02D00123FB7301E03F
S31520000D000023FB73FB7B18461437BD465DF8047B36
S31520000D10704780B485B000AF786039600023FB60EF
S31520000D203B68174A934203D17B6800229A6121E0EF
S31520000D303B68C3F31303FB603B6803F00073002B8F
S31520000D4003D07B68FA68DA6014E03B6803F08063BE
S31520000D50002B03D07B68FA681A610BE03B6803F02E
S31520000D600063002B03D07B68FA689A6002E07B68F8
S31520000D70FA685A6000BF1437BD465DF8047B704799
S31520000D807000F03080B584B000AF78603960002301
S31520000D90FB737B685A693B681340002B00F01B816C
S31520000DA03B68B3F5003F00F0DD803B68B3F5003FBC
S31520000DB000F20E813B68B3F5803F00F0CA803B68A5
S31520000DC0B3F5803F00F204813B68B3F5004F00F095
S31520000DD0F6803B68B3F5004F00F2FA803B68B3F526
S31520000DE0006F00F0E3803B68B3F5006F00F2F080FF
S31520000DF03B68B3F5806F00F0D0803B68B3F5806F19
S31520000E0000F2E6803B68B3F5007F00F0BD803B68CA
S31520000E10B3F5007F00F2DC803B68B3F5807F00F0FD
S31520000E20AA803B68B3F5807F00F2D2803B68202BF6
S31520000E304CD83B68002B00F0CB803B68013B1F2B36
S31520000E4000F2C68001A252F823F000BFD50E002082
S31520000E50E70E0020D10F0020F90E0020D10F002030
S31520000E60D10F0020D10F00200B0F0020D10F002022
S31520000E70D10F0020D10F0020D10F0020D10F00204C
S31520000E80D10F0020D10F00201D0F0020D10F0020F0
S31520000E90D10F0020D10F0020D10F0020D10F00202C
S31520000EA0D10F0020D10F0020D10F0020D10F00201C
S31520000EB0D10F0020D10F0020D10F0020D10F00200C
S31520000EC0D10F0020D10F00202F0F00203B68402B90
S31520000ED036D07DE07B689B684249184600F060F971
S31520000EE00346FB7379E07B68DB680321184600F034
S31520000EF057F90346FB7370E07B68DB6808211846C8
S31520000F0000F04EF90346FB7367E07B68DB6810212F
S31520000F10184600F045F90346FB735EE07B681B69C3
S31520000F200321184600F03CF90346FB7355E07B6825
S31520000F301B690821184600F033F90346FB734CE081
S31520000F407B681B691021184600F02AF90346FB73BB
S31520000F5043E07B685B680821184600F021F90346C8
S31520000F60FB733AE07B685B681021184600F018F99D
S31520000F700346FB7331E07B689B690121184600F02C
S31520000F800FF90346FB7328E07B689B69022118460C
S31520000F9000F006F90346FB731FE07B689B6904217A
S31520000FA0184600F0FDF80346FB7316E07B689B6944
S31520000FB07021184600F0F4F80346FB730DE07B68B9
S31520000FC05B680421184600F0EBF80346FB7304E047
S31520000FD00023FB7301E00023FB73FB7B18461037CD
S31520000FE0BD4680BD0101010080B483B000AF7860AA
S31520000FF039603B68B3F5003F00F0AA803B68B3F543
S31520001000003F00F2C3803B68B3F5803F00F09C8030
S315200010103B68B3F5803F00F2B9803B68B3F5004FDB
S3152000102000F0AD803B68B3F5004F00F2AF803B681F
S31520001030B3F5006F00F09C803B68B3F5006F00F2BB
S31520001040A5803B68B3F5806F00F08E803B68B3F5D2
S31520001050806F00F29B803B68B3F5007F00F08080B4
S315200010603B68B3F5007F00F291803B68B3F5807F43
S3152000107072D03B68B3F5807F00F288803B68202BD6
S315200010804AD83B68002B00F081803B68013B1F2B30
S315200010907CD801A252F823F0211100208D110020C6
S315200010A08D110020291100208D1100208D11002086
S315200010B08D110020311100208D1100208D1100206E
S315200010C08D1100208D1100208D1100208D11002002
S315200010D08D1100208D1100208D1100208D110020F2
S315200010E08D1100208D1100208D1100208D110020E2
S315200010F08D1100208D1100208D1100208D110020D2
S315200011008D1100208D1100208D1100208D110020C1
S315200011108D110020391100203B68402B10D035E07E
S315200011207B681E4A9A6032E07B680822DA602EE0ED
S315200011307B681022DA602AE07B6808221A6126E0A2
S315200011407B6810221A6122E07B6808225A601EE022
S315200011507B6810225A601AE07B6804225A6016E0E7
S315200011607B6804225A6012E07B6804225A600EE0F3
S315200011707B6800229A617B6804225A6007E07B68BC
S3152000118000229A617B6804225A6000E000BF00BFFB
S315200011900C37BD465DF8047B704700BF0101010096
S315200011A080B485B000AF786039600023FB737A681D
S315200011B03B681340002B02D00123FB7301E0002380
S315200011C0FB73FB7B18461437BD465DF8047B7047DE
S315200011D080B500AF01214FF0005003F0BBFC002189
S315200011E04FF0005003F0B6FC00BF80BD80B485B040
S315200011F000AF786039600023FB600023BB60144B8E
S315200012001B68FB6040F6FE727B6802FA03F3DB4341
S31520001210FA681340FB603B681A683B685B681A43B0
S315200012203B689B681A433B68DB681343BB60BA681C
S315200012307B6802FA03F3FA681343FB60044AFB68EF
S31520001240136000BF1437BD465DF8047B704700BFAE
S315200012500074004080B483B000AF78607B680022C1
S315200012601A607B6800225A607B6800229A607B683D
S315200012700022DA6000BF0C37BD465DF8047B70475C
S3152000128080B483B000AF78600B46FB70FB78002BF0
S3152000129009D00D4B1A6801217B6801FA03F30A492C
S315200012A013430B6009E0084B1A6801217B6801FA99
S315200012B003F3DB43044913400B6000BF0C37BD46E4
S315200012C05DF8047B704700BF0074004080B483B093
S315200012D000AF78600B46FB70FB78002B0AD00E4BD4
S315200012E05A687B681B09012101FA03F30A49134353
S315200012F04B600AE0084B5A687B681B09012101FAFA
S3152000130003F3DB43044913404B6000BF0C37BD4653
S315200013105DF8047B704700BF0074004080B483B042
S3152000132000AF0346FB71FB79002B06D0094B5B68A7
S31520001330084A43F00303536005E0064B5B68054A01
S3152000134023F00303536000BF0C37BD465DF8047BD2
S31520001350704700BF0074004080B485B000AFF860CD
S31520001360B9601346FB71FB79002B09D00C4B1A6828
S31520001370B968FB6801FA03F3094913430B6009E0D6
S31520001380074B1A68B968FB6801FA03F3DB43044983
S3152000139013400B6000BF1437BD465DF8047B7047D1
S315200013A00074004080B485B000AF78600B467B8027
S315200013B00023FB60084BFB60FA687B681344083304
S315200013C0FB60FB681A467B88136000BF1437BD4656
S315200013D05DF8047B704700BF0074004080B485B080
S315200013E000AF78600B467B800023FB60084BFB60D8
S315200013F0FA687B6813441433FB60FB681A467B88C3
S31520001400136000BF1437BD465DF8047B704700BFEC
S315200014100074004080B485B000AF78600B467B80B6
S3152000142013463B800023FB600023BB607B68082BB0
S3152000143005D17B881A023B881343FB6004E07B8836
S315200014401A043B881343FB60074BBB607A68BB6872
S3152000145013442033BB60BB68FA681A6000BF143798
S31520001460BD465DF8047B70470074004080B485B0AB
S3152000147000AF78600023FB60084BFB607B689A080E
S31520001480FB6813442C33FB60FB681B689BB2184631
S315200014901437BD465DF8047B704700BF00740040DA
S315200014A080B483B000AF78600B46FB70FB78002BCE
S315200014B00AD00E4B1A684FF480517B6801FA03F369
S315200014C00A4913430B600AE0084B1A684FF480510F
S315200014D07B6801FA03F3DB43044913400B6000BF2A
S315200014E00C37BD465DF8047B704700BF0074004092
S315200014F080B485B000AFF860B9601346FB71FB7904
S31520001500002B09D00C4B1A68B968FB6801FA03F363
S31520001510094913430B6009E0074B1A68B968FB6851
S3152000152001FA03F3DB43044913400B6000BF143771
S31520001530BD465DF8047B70470074004080B485B0DA
S3152000154000AF786039600023FB730A4B5A6B396809
S315200015507B6801FA03F31340002B02D00123FB73AF
S3152000156001E00023FB73FB7B18461437BD465DF86C
S31520001570047B70470074004080B483B000AF78606D
S31520001580396006493A687B6802FA03F34B6300BF69
S315200015900C37BD465DF8047B704700BF00740040E1
S315200015A080B485B000AF786039600023FB730023D8
S315200015B0BB60104B1A6839687B6801FA03F3134045
S315200015C0BB600C4B5A6B39687B6801FA03F31340F6
S315200015D0002B05D0BB68002B02D00123FB7301E052
S315200015E00023FB73FB7B18461437BD465DF8047B4E
S315200015F0704700BF0074004080B483B000AF7860AD
S31520001600396006493A687B6802FA03F34B6300BFE8
S315200016100C37BD465DF8047B704700BF0074004060
S3152000162080B483B000AF0346FB71FB7903F01F0340
S31520001630012202FA03F1064A97F907305B0942F8BC
S31520001640231000BF0C37BD465DF8047B704700BFF2
S3152000165000E100E080B483B000AF03463960FB713F
S3152000166097F90730002B0BDA3B68DAB20C49FB7985
S3152000167003F00F03043B1201D2B20B441A7609E0A1
S315200016803B68DAB2074997F907301201D2B20B4408
S3152000169083F8002300BF0C37BD465DF8047B7047F6
S315200016A000ED00E000E100E080B582B000AF786098
S315200016B00EE07B681B780D2B07D07B685A1C7A605E
S315200016C01B78184600F060F902E07B6801337B60E6
S315200016D07B681B78002BECD100BF00BF0837BD46C6
S315200016E080BD80B586B000AF786000237B617B68C3
S315200016F003F00F027B69591C796110498A5C07F156
S3152000170018010B4403F80C2C7B681B097B607B6853
S31520001710002BECD10AE07B69013B7B6107F10C02CF
S315200017207B6913441B78184600F02EF97B69002B41
S31520001730F1D100BF00BF1837BD4680BDE48C002024
S3152000174080B59EB000AF78607B68002B02DA4FF040
S31520001750FF3300E001233B677B683A6F02FB03F30C
S315200017607B6000237B6779681C4B83FB01239A10DF
S31520001770CB17D21A13469B0013445B00CA1A7B6F01
S31520001780591C796716498A5C07F178010B4403F8DE
S315200017906C2C7B68114A82FB03129210DB17D31A3A
S315200017A07B607B68002BDED13B6F002B0EDA2D2071
S315200017B000F0EAF80AE07B6F013B7B6707F10C0239
S315200017C07B6F13441B78184600F0DEF87B6F002BE6
S315200017D0F1D100BF00BF7837BD4680BD676666661B
S315200017E0E48C002080B483B000AF10237B607B683C
S315200017F083F3118800BF00BF0C37BD465DF8047B1C
S31520001800704780B483B000AF30237B607B6883F35E
S31520001810118800BF00BF0C37BD465DF8047B7047BA
S3152000182080B584B000AF78600B48FFF73DFF0B4BC7
S315200018301B68002B02D1094B094A1A60074B1B680B
S31520001840FB60064B1A687B681344044A1360FB68E6
S3152000185018461037BD4680BDA0840020F096002093
S315200018600817012080B485B000AF786039603B68E6
S3152000187003F5F95310337A6813607B681B68BB60E5
S315200018800023FB600AE0FB689B001A46BB681344F2
S315200018901A4600231360FB680133FB60FB68332B79
S315200018A0F1DDBB686FF016021A60BB6804331A4676
S315200018B003231360BB6884331A464FF0807313608A
S315200018C000BF1437BD465DF8047B704780B485B0F1
S315200018D000AF786039607B681B688033FB60FB68EB
S315200018E03A681A6000BF1437BD465DF8047B70471E
S315200018F080B584B000AF1D4803F022FB3B1D18467F
S3152000190003F06AFC40F24733BB803B1D194617485B
S3152000191003F0F6FB164B174A1A6002216FF00100FE
S31520001920FFF798FE144B154A1A6000216FF0040049
S31520001930FFF790FE124B134A1A6002213220FFF75E
S3152000194089FE3220FFF76CFE0021084803F08EFC4A
S315200019500121064803F057FD01220221034804F025
S3152000196026FD00BF1037BD4680BD00BF000C0040DD
S3152000197038C00120514E00202CC001204D4E0020A1
S3152000198008C101200F1D002080B582B000AF03469C
S31520001990FB71FB799BB21946074801F00EF800BF90
S315200019A08021054801F0F8F90346002BF8D000BF46
S315200019B000BF0837BD4680BD0010014080B500AF8E
S315200019C0124803F06FFC03461A46114B1A60114B5E
S315200019D001221A60104B00221A60104B1B68002B44
S315200019E006D00E4B1B680E4A1268002110469847F7
S315200019F0084B00221A60084B1B68002B01D000F010
S31520001A005DFA054B00221A6000BF80BD000C004025
S31520001A1090930020889300208C930020009400202F
S31520001A20A093002080B500AF124803F03BFC03468C
S31520001A301A46114B1A60114B01221A60104B0022D4
S31520001A401A60104B5B68002B06D00E4B5B680E4A63
S31520001A505268012110469847084B00221A60084B0D
S31520001A601B68002B01D000F029FA054B00221A60D2
S31520001A7000BF80BD000C004090930020889300207A
S31520001A808C93002000940020A093002080B500AF06
S31520001A90124803F007FC03461A46114B1A60114BF5
S31520001AA001221A60104B00221A60104B9B68002BF3
S31520001AB006D00E4B9B680E4A926802211046984724
S31520001AC0084B00221A60084B1B68002B01D000F03F
S31520001AD0F5F9054B00221A6000BF80BD000C0040BE
S31520001AE090930020889300208C930020009400205F
S31520001AF0A093002080B485B000AF786039600023C1
S31520001B00FB603B681B68BB6004E0BB68FB60BB688E
S31520001B101B68BB60BB68002B05D0BB689A687B68D6
S31520001B209B689A42F1DD7B68BA681A60FB68002BD5
S31520001B3003D13B687A681A6002E0FB687A681A600B
S31520001B4000BF1437BD465DF8047B704780B485B06E
S31520001B5000AF786039600023FB603B681B68BB6080
S31520001B6004E0BB68FB60BB681B68BB60BB68002BDE
S31520001B7005D0BB685A687B685B689A42F1DD7B6852
S31520001B80BA681A60FB68002B03D13B687A681A6032
S31520001B9002E0FB687A681A6000BF1437BD465DF81C
S31520001BA0047B704780B584B000AF78607B681B6883
S31520001BB0FB60FB68002B04D0FB681A687B681A6000
S31520001BC00CE00948FFF770FD00220221074805F0C6
S31520001BD044FB0748FFF768FD30BFFDE7FB68184662
S31520001BE01037BD4680BD00BFB884002000040240E7
S31520001BF0C484002080B584B000AF78607B681B6801
S31520001C00FB60FB68002B04D0FB681A687B681A60AF
S31520001C100CE00948FFF748FD00220221074805F09D
S31520001C201CFB0748FFF740FD30BFFDE7FB68184661
S31520001C301037BD4680BD00BFB88400200004024096
S31520001C40D084002080B483B000AF786039603B68D0
S31520001C501A687B681A603B687A681A6000BF0C377E
S31520001C60BD465DF8047B704780B483B000AF7860D2
S31520001C7039603B681A687B689A603B687A681A60A4
S31520001C8000BF0C37BD465DF8047B704780B485B035
S31520001C9000AF78607B681B68FB60FB689A687B688E
S31520001CA01A60FB6818461437BD465DF8047B7047FA
S31520001CB080B485B000AF786039600023FB603B6854
S31520001CC01B68BB6004E0BB68FB60BB681B68BB602D
S31520001CD0BB68002B03D0BA687B689A42F3D1BB68F5
S31520001CE0002B0DD0FB68002B04D0BB681A68FB685C
S31520001CF01A6003E0BB681A683B681A60012300E09B
S31520001D00002318461437BD465DF8047B704780B51E
S31520001D1082B000AF02211E4804F0D3FB1C4803F01A
S31520001D20C1FA03467B6007E01A48FFF73BFF0346EC
S31520001D3019491846FFF7DEFE164B1B68002B06D006
S31520001D40144B1B685A687B68D31A002BECDD114BA9
S31520001D501B68002B16D00E4803F0A4FA03463B60FE
S31520001D600C4B1B685B683A689A4204DD002202210C
S31520001D700A4805F072FA074B1B685B681946044847
S31520001D8003F0CFFD00F09AF800BF0837BD4680BDAE
S31520001D90000C004084930020809300200004024021
S31520001DA00346024A136010DFF74600BFAC930020BB
S31520001DB00346054A1360054B5B68044A43F080538B
S31520001DC05360F74600BF00BFAC93002000ED00E053
S31520001DD080B582B000AF7860094B5B68C3F3080317
S31520001DE0002B03D17868FFF7DBFF02E07868FFF766
S31520001DF0DFFFFFF706FD00BF0837BD4680BD00BFE9
S31520001E0000ED00E090B585B000AF234B1C68234859
S31520001E10FFF7C8FE0346E360E368BB60FFF7F1FC0B
S31520001E20BB68D868BB681969BB685B691A4600F04D
S31520001E3015F9FFF7D7FC1A49B868FFF703FF194BC6
S31520001E401B689B68DB687B60144B1B68002B0AD0E1
S31520001E507B68002BD9D0114B1B689A687B689B68DE
S31520001E60D31A002BD1DD0F48FFF710FF03460E498A
S31520001E701846FFF7F9FE0B4B1B68FB6003E0FB6877
S31520001E801B691B68FB60FB681B69002BF7D1F86890
S31520001E90FFF79EFFB9E700BF048D00208093002046
S31520001EA0F88C0020008D0020FC8C002080B500AF2F
S31520001EB000F004F8FFF7A5FC30BFFBE780B582B041
S31520001EC000AF144B1B68DB687B60134B1B68002B31
S31520001ED01BD0124B1B68002B17D07B68002B07D01A
S31520001EE00D4B1B689A687B689B68D31A002B0CDA0B
S31520001EF00A48FFF7CBFE034606491846FFF7B4FE0D
S31520001F00044B1B681846FFF763FF00BF0837BD4622
S31520001F1080BD00BF008D002080930020FC8C002017
S31520001F2080B588B000AFF860B9607A603B60EFF3A7
S31520001F3012833B613B691B09012B14BF012300233C
S31520001F40DBB2FB77FFF74EFC3A48FFF753FEB8614A
S31520001F50BB697A68DA60BB693A681A61BB69BA6A92
S31520001F605A61354B1B68002B04D1344B1B68DB6848
S31520001F705B6801E0324B1B68FA681A44BB695A60F9
S31520001F80BB695A68BB68002B01DDBB6801E06FF0B6
S31520001F9000431A44BB699A602A4803F083F9034632
S31520001FA07B61BB695A687B69D31A002B16DD2649EB
S31520001FB0B869FFF7CBFD244B1B685B687A699A42A8
S31520001FC004DD00220221214805F047F91E4B1B683B
S31520001FD05B6819461B4803F0A4FC21E01C49B8693C
S31520001FE0FFF788FDFB7F002B1AD01A4B1B68002BAE
S31520001FF016D0174B1B689A68174B1B68DB689B68C3
S31520002000D31A002B0CDA1348FFF740FE0346124979
S315200020101846FFF729FE104B1B681846FFF7D8FE17
S31520002020FB7F002B01D0FFF7ECFBBB69184620375E
S31520002030BD4680BDF88C002088930020048D0020AA
S3152000204090930020000C004084930020000402405E
S3152000205080930020FC8C0020008D002080B588B065
S3152000206000AFF860B9607A60EFF312833B613B6999
S315200020701B09012B14BF01230023DBB2FB76FFF7DC
S31520002080B1FBFB681B68FB61FB69002B37D003E0C3
S31520002090FB691B691B68FB61FB691B69002BF7D178
S315200020A0304B1B68FA699A4202D0FB7E002B07D17F
S315200020B0FB7E002B01D0FFF7A4FB4FF0FF334DE052
S315200020C0FB685B68002B03D0FB685B6800221A6103
S315200020D0244B1A68FB685A60224B1B68FA681A61FF
S315200020E0F869FFF775FE1F4B1B68DB68002B06D1CE
S315200020F0FB7E002B01D0FFF784FB00232EE0194B3B
S315200021001A68FB681A60FB7E002B05D0FB685B68AB
S31520002110012B01D0FFF775FBBB687968F8689847F3
S315200021207861FFF75FFBFB6800221A60FB685B683B
S31520002130FB61FB69002B0BD0FB69012B08D0FB68E8
S3152000214000225A60FB6900221A61F869FFF740FEF7
S31520002150FB7E002B01D0FFF754FB7B691846203706
S31520002160BD4680BD048D002080B586B000AF786066
S31520002170EFF31283FB60FB681B09012B14BF0123BD
S315200021800023DBB2FB74FFF72DFB1F497868FFF7AE
S315200021908FFD0346002B06D11C497868FFF788FD82
S315200021A00346002B04D01A497868FFF74BFD21E03F
S315200021B0184B1B687B611AE0174B1B687A699A4299
S315200021C012D07B69DB687A689A420DD17B691A69DD
S315200021D07B68DB689A4207D17B690022DA600C496A
S315200021E07868FFF72FFD05E07B699B687B617B693B
S315200021F0002BE1D1FB7C002B01D0FFF702FB00BFB7
S315200022001837BD4680BD00BF8493002080930020F0
S31520002210F88C0020008D0020048D002080B485B02D
S3152000222000AF7860EFF31283FB60FB681B09012B7C
S3152000223004D0074B1B68DB685B6801E0054B1B6815
S315200022407A68136000BF1437BD465DF8047B70477B
S31520002250048D00209093002080B485B000AF786074
S31520002260EFF31283FB60FB681B09012B04D0084B9C
S315200022701B68DB685B6801E0064B1B687A6812689E
S315200022809B1A18461437BD465DF8047B704700BF7D
S31520002290048D00209093002080B584B000AFEFF32A
S315200022A012837B607B681B09012B14BF012300234B
S315200022B0DBB2FB73FFF796FA0C4802F0F3FF0346F6
S315200022C0BB60FB7B002B01D0FFF79BFAFB7B002B2F
S315200022D004D0074B1B68DB685B6801E0054B1B6875
S315200022E0BA68D31A18461037BD4680BD000C004088
S315200022F0048D00209093002080B582B000AF00238B
S315200023007B6012E07B685A1C13465B001344DB009B
S31520002310444A991843487A6813465B001344DB0005
S31520002320034419607B6801337B607B681C2BE9DDE5
S315200023303C4B0022C3F8B82200237B6013E07B6865
S315200023405A1C13469B0013449B00374A991836485B
S315200023507A6813469B0013449B0003440833196094
S315200023607B6801337B607B68022BE8DD2E4B0022E5
S315200023705A6400237B6030E02B497A6813469B0021
S3152000238013449B000B4404337A681A607A68134618
S315200023909B0013449B00244A1A447B685B03234911
S315200023A00B4419461046FFF75DFA7A6813469B00E0
S315200023B013449B001C4A13441D491846FFF786FA0E
S315200023C019497A6813469B0013449B000B4410332B
S315200023D000221A607B6801337B607B68032BCBDD90
S315200023E0144B4FF0FF325A60124B00229A60114B69
S315200023F000221A610F4B0022DA600F48FFF754F9CA
S315200024000E48FFF751F90E48FFF74EF90A48FFF735
S315200024104BF90948FFF748F9FFF76AFA00BF083772
S31520002420BD4680BD20940020B0930020F896002061
S31520002430051E00200C940020DC840020E08400206F
S31520002440EC84002080B586B000AFF860B9601346F2
S31520002450FB71FB79022B41D8EFF312833B613B6979
S315200024601B09012B14BF01230023DBB2FB75FFF7E9
S31520002470B9F9FB79022B0ED0022B10DC002B02D0EF
S31520002480012B04D00BE0174B174A1A6014E0174BA8
S31520002490174A1A6010E0174B174A1A600CE01748C3
S315200024A0FFF702F900220221154804F0D6FE15484E
S315200024B0FFF7FAF830BFFDE7FB791349FA6841F8D0
S315200024C02320FB791149BA6841F82320FB680122B1
S315200024D05A60FB7D002B01D0FFF793F900BF183718
S315200024E0BD4680BDD4C00120BD19002090C001206A
S315200024F0251A00209CC001208D1A0020B8840020B7
S315200025000004024004850020A093002000940020AF
S3152000251080B586B002AFF860B9607A60FFF762F9DD
S31520002520FFF7EAFEBB68002B16D00F4802F0BAFE72
S3152000253003461A460D4B1A600D4B01221A607B6822
S315200025400093BB68FA6800210020FFF7E9FC084BDE
S3152000255000221A60FFF7B2FCFFF7A8FC00231846FA
S315200025601037BD4680BD00BF000C00409093002070
S315200025708893002080B582B000AF78607B683B4AA4
S31520002580934208D10121102002F004FB00211020E3
S3152000259002F000FB65E07B68354A93420AD10121AF
S315200025A04FF4003002F0D6FA00214FF4003002F04A
S315200025B0D1FA56E07B682F4A93420AD101214FF483
S315200025C0802002F0C7FA00214FF4802002F0C2FAE0
S315200025D047E07B68284A93420AD101214FF4002024
S315200025E002F0B8FA00214FF4002002F0B3FA38E0E6
S315200025F07B68224A93420AD101214FF4801002F0CF
S31520002600A9FA00214FF4801002F0A4FA29E07B6891
S315200026101B4A934208D10121202002F0BBFA002157
S31520002620202002F0B7FA1CE07B68164A93420AD1B2
S3152000263001214FF0804002F08DFA00214FF08040BA
S3152000264002F088FA0DE07B680F4A934209D10121F6
S315200026504FF0004002F07EFA00214FF0004002F0D9
S3152000266079FA00BF0837BD4680BD00BF0010014083
S315200026700044004000480040004C0040005000400C
S315200026800014014000780040007C004080B58AB0EC
S3152000269000AF7860396000237B6200233B62002311
S315200026A0FB610023BB617B681B8A9BB27B627B6AD2
S315200026B023F440537B623B68DB881A467B6A1343CC
S315200026C07B627B6A9AB27B681A827B689B899BB203
S315200026D07B627B6A23F4B05323F00C037B623B6856
S315200026E09A883B681B8913439AB23B685B891343DC
S315200026F09BB21A467B6A13437B627B6A9AB27B68DB
S315200027009A817B689B8A9BB27B627B6A23F44073A7
S315200027107B623B689B891A467B6A13437B627B6A92
S315200027209AB27B689A8207F10803184601F05CFF8B
S315200027307B68304A934203D07B682F4A934202D16A
S315200027407B693B6201E03B693B627B689B899BB26C
S315200027501BB2002B0CDA3A6A13469B0013449A00EC
S315200027601A443B681B685B00B2FBF3F3FB610BE08A
S315200027703A6A13469B0013449A001A443B681B6826
S315200027809B00B2FBF3F3FB61FB691C4AA2FB03230C
S315200027905B091B017B627B6A1B09642202FB03F334
S315200027A0FA69D31ABB617B689B899BB21BB2002B4B
S315200027B00CDABB69DB003233104AA2FB03235B0928
S315200027C003F007037A6A13437B620BE0BB691B01A4
S315200027D032330A4AA2FB03235B0903F00F037A6A0A
S315200027E013437B627B6A9AB27B681A8100BF2837C3
S315200027F0BD4680BD00100140001401401F85EB51ED
S3152000280080B483B000AF78607B684FF416521A60AC
S315200028107B6800229A807B680022DA807B6800220F
S315200028201A817B680C225A817B6800229A8100BF1C
S315200028300C37BD465DF8047B704780B485B000AF89
S31520002840786039600023FB607B681B8A9BB2FB6043
S31520002850FB6823F47063FB603B681A883B685B88DF
S3152000286013439AB23B689B8813439AB23B68DB8832
S3152000287013439BB21A46FB681343FB60FB689AB26C
S315200028807B681A8200BF1437BD465DF8047B70470B
S3152000289080B483B000AF78607B6800221A807B68A2
S315200028A000225A807B6800229A807B680022DA8088
S315200028B000BF0C37BD465DF8047B704780B483B0FB
S315200028C000AF78600B46FB70FB78002B08D07B6846
S315200028D09B899BB243F400539AB27B689A8107E0A6
S315200028E07B689B899BB223F400539AB27B689A81BA
S315200028F000BF0C37BD465DF8047B704780B483B0BB
S3152000290000AF78600B46FB707B681B8B9BB223F075
S31520002910FF039AB27B681A837B681B8B9AB2FB787B
S315200029209BB213439AB27B681A8300BF0C37BD460D
S315200029305DF8047B704780B483B000AF78600B46A7
S31520002940FB70FB78002B0AD07B689B899BB26FEAD1
S3152000295043436FEA53439AB27B689A8107E07B68C8
S315200029609B899BB2C3F30E039AB27B689A8100BF00
S315200029700C37BD465DF8047B704780B483B000AF4A
S3152000298078600B46FB70FB78002B08D07B689B8A0F
S315200029909BB243F400639AB27B689A8207E07B6815
S315200029A09B8A9BB223F400639AB27B689A8200BF0B
S315200029B00C37BD465DF8047B704780B483B000AF0A
S315200029C078600B467B807B88C3F308039AB27B68CA
S315200029D09A8000BF0C37BD465DF8047B704780B4F3
S315200029E083B000AF78607B689B889BB2C3F30803F3
S315200029F09BB218460C37BD465DF8047B704780B401
S31520002A0083B000AF78600B46FB707B681B8A9BB255
S31520002A1023F00F039AB27B681A827B681B8A9AB2CC
S31520002A20FB789BB213439AB27B681A8200BF0C379D
S31520002A30BD465DF8047B704780B483B000AF7860F4
S31520002A400B46FB70FB78002B08D07B689B899BB2DA
S31520002A5043F002039AB27B689A8107E07B689B89E0
S31520002A609BB223F002039AB27B689A8100BF0C378F
S31520002A70BD465DF8047B704780B483B000AF7860B4
S31520002A800B467B807B689B899BB223F400639AB2BA
S31520002A907B689A817B689B899AB27B8813439AB21A
S31520002AA07B689A8100BF0C37BD465DF8047B704772
S31520002AB080B483B000AF78600B467B807B681B8A2E
S31520002AC09BB223F020039AB27B681A827B681B8A0A
S31520002AD09AB27B8813439AB27B681A8200BF0C375E
S31520002AE0BD465DF8047B704780B483B000AF786044
S31520002AF00B46FB70FB78002B08D07B681B8A9BB2A9
S31520002B0043F480439AB27B681A8207E07B681B8A6B
S31520002B109BB223F480439AB27B681A8200BF0C379B
S31520002B20BD465DF8047B704780B483B000AF786003
S31520002B307B689B899BB243F001039AB27B689A819A
S31520002B4000BF0C37BD465DF8047B704780B483B068
S31520002B5000AF78600B46FB70FB78002B08D07B68B3
S31520002B609B8A9BB243F008039AB27B689A8207E05D
S31520002B707B689B8A9BB223F008039AB27B689A8271
S31520002B8000BF0C37BD465DF8047B704780B483B028
S31520002B9000AF78600B46FB707B681B8B9BB2DBB269
S31520002BA09AB27B681A837B681B8B9AB2FB789BB29E
S31520002BB01B029BB213439AB27B681A8300BF0C3761
S31520002BC0BD465DF8047B704780B483B000AF786063
S31520002BD00B46FB70FB78002B08D07B689B8A9BB248
S31520002BE043F020039AB27B689A8207E07B689B8A2F
S31520002BF09BB223F020039AB27B689A8200BF0C37DF
S31520002C00BD465DF8047B704780B483B000AF786022
S31520002C100B46FB70FB78002B08D07B689B8A9BB207
S31520002C2043F010039AB27B689A8207E07B689B8AFE
S31520002C309BB223F010039AB27B689A8200BF0C37AE
S31520002C40BD465DF8047B704780B483B000AF7860E2
S31520002C500B467B807B689B8A9BB223F004039AB247
S31520002C607B689A827B689B8A9AB27B8813439AB246
S31520002C707B689A8200BF0C37BD465DF8047B70479F
S31520002C8080B483B000AF78600B46FB70FB78002BD6
S31520002C9008D07B689B8A9BB243F002039AB27B687A
S31520002CA09A8207E07B689B8A9BB223F002039AB242
S31520002CB07B689A8200BF0C37BD465DF8047B70475F
S31520002CC080B483B000AF78600B467B8013467B7060
S31520002CD07B78002B08D07B689B8A9AB27B8813432B
S31520002CE09AB27B689A8209E07B689B8A9AB27B8833
S31520002CF0DB439BB213409AB27B689A8200BF0C37A3
S31520002D00BD465DF8047B704780B487B000AF78601D
S31520002D100B467B8013467B7000233B610023FB60C0
S31520002D200023BB6000237B617B687B617B88DBB2F1
S31520002D305B09DBB23B617B8803F01F03FB6001224A
S31520002D40FB6802FA03F3BB603B69012B03D17B6965
S31520002D500C337B6109E03B69022B03D17B6910337D
S31520002D607B6102E07B6914337B617B78002B06D084
S31520002D707B6919687B69BA680A431A6006E07B6931
S31520002D801968BB68DA437B690A401A6000BF1C37A2
S31520002D90BD465DF8047B704780B485B000AF78608F
S31520002DA00B467B800023FB737B681B889AB27B884B
S31520002DB013409BB2002B02D00123FB7301E00023BA
S31520002DC0FB73FB7B18461437BD465DF8047B7047C2
S31520002DD080B483B000AF78600B467B807B88DB4372
S31520002DE09AB27B681A8000BF0C37BD465DF8047B1B
S31520002DF0704780B487B000AF78600B467B80002395
S31520002E00FB6000237B610023BB600023FB747B886F
S31520002E10DBB25B09DBB2BB607B8803F01F037B61FF
S31520002E2001227B6902FA03F37B61BB68012B07D180
S31520002E307B689B899BB21A467B6913407B6111E0B4
S31520002E40BB68022B07D17B681B8A9BB21A467B691B
S31520002E5013407B6106E07B689B8A9BB21A467B699E
S31520002E6013407B617B881B0A9BB2FB600122FB68B7
S31520002E7002FA03F3FB607B681B889BB21A46FB6849
S31520002E801340FB607B69002B05D0FB68002B02D02A
S31520002E900123FB7401E00023FB74FB7C18461C37DE
S31520002EA0BD465DF8047B704780B485B000AF78607E
S31520002EB00B467B800023FB810023BB817B881B0A7A
S31520002EC0FB81FB89012202FA03F3BB81BB89DB4329
S31520002ED09AB27B681A8000BF1437BD465DF8047B22
S31520002EE0704700BF80B483B000AF0346FB71FB7907
S31520002EF003F01F03012202FA03F1064A97F907306D
S31520002F005B0942F8231000BF0C37BD465DF8047BF1
S31520002F10704700BF00E100E080B483B000AF0346F5
S31520002F203960FB7197F90730002B0BDA3B68DAB270
S31520002F300C49FB7903F00F03043B1201D2B20B4478
S31520002F401A7609E03B68DAB2074997F90730120189
S31520002F50D2B20B4483F8002300BF0C37BD465DF880
S31520002F60047B704700ED00E000E100E080B586B00C
S31520002F7000AF786039607B6800229A617B689A6925
S31520002F807B685A617B685A697B68DA612248FEF75A
S31520002F908BFB07F10C031846FDF7F8F90023BB74E9
S31520002FA00023FB7400233B7500237B750023BB7530
S31520002FB00023FB750023BB730023FB7302233B74A2
S31520002FC003237B740723BB8107F10C03194613489F
S31520002FD0FDF748F80346002B02D11148FEF764FBA3
S31520002FE007F10C0319460F48FDF73CF80346002B62
S31520002FF002D10D48FEF758FB02211420FFF78CFF63
S315200030001420FFF76FFF012202210448FDF7FCFD83
S3152000301000BF1837BD4680BD2485002000640040CF
S315200030204C8500200068004064850020B0B58AB039
S3152000303002AF786039607B689B685A491846FDF76D
S3152000304001FE0346012B02D05748FEF72DFB7B6875
S31520003050DB69072B00F39F807B689B6807F10802DA
S3152000306000211846FDF7D6FBBB681B09DBB27A6840
S31520003070526903F07F03D8B2796813469B00134444
S315200030805B0013440B44203302461A70BB68DBB244
S315200030907A68526903F00F03D8B2796813469B0009
S315200030A013445B0013440B44213302461A70BB7C45
S315200030B07A68526903F00F03D8B2796813469B00E9
S315200030C013445B0013440B44223302461A70002338
S315200030D0FB7716E0FB7F7A685269F97F07F12000BB
S315200030E0034413F80D4C786813469B0013445B0089
S315200030F0134403440B44233322461A70FB7F0133C7
S31520003100FB777B685A69796813469B0013445B00FA
S3152000311013440B4422331B78FA7F9A42DAD37B6816
S31520003120DB68002B25D07B68DC687B681D697B68A3
S315200031305A69796813469B0013445B0013440B4479
S3152000314020331B7819017B685A69786813469B00DF
S3152000315013445B001344034421331B780B44009330
S315200031602B46224600210020FEF7DAFE0F4B0122D5
S315200031701A607B685B6901335A4203F0070302F049
S31520003180070258BF53427A6853617B68DB695A1C31
S315200031907B68DA6102E00648FEF786FA00BF203730
S315200031A0BD46B0BD030000127C8500208C93002014
S315200031B0A485002090B484B000AF786039607B6825
S315200031C0DB69002B55DD7B689A69796813469B007D
S315200031D013445B0013440B4420331A783B681A705F
S315200031E07B689A69796813469B0013445B001344F5
S315200031F00B4421331A783B685A707B689A69796840
S3152000320013469B0013445B0013440B4422331A7865
S315200032103B689A700023FB7313E07B689A69F87BFE
S31520003220F97B7C6813469B0013445B0013442344BC
S31520003230034423331A783B680B44DA70FB7B013353
S31520003240FB733B689B78FA7B9A42E6D37B689B6943
S3152000325001335A4203F0070302F0070258BF5342D4
S315200032607A6893617B68DB695A1E7B68DA61002382
S3152000327000E0012318461037BD4690BC704780B544
S315200032808AB000AF786039607B689B683B62002318
S31520003290FB77234B3B623B681B781B013A685278CD
S315200032A01344BB6000237B7400233B743B689B78EC
S315200032B0082B02D93B6808229A703B689B78BB741E
S315200032C0002387F8273010E097F8272097F8273033
S315200032D039680A44D27807F128010B4403F8152CE3
S315200032E097F82730013387F827303B689B7897F883
S315200032F027209A42E8D307F108031946386AFDF7D2
S3152000330009F90346FB77FB7F042B04D10548FEF71A
S31520003310CBF9012300E0002318462837BD4680BD9F
S3152000332000680040C485002080B483B000AF786078
S315200033307B680A3318460C37BD465DF8047B704718
S3152000334080B5A2B000AF7860396007F108003B680D
S315200033507A68802104F0E4FA07F108031A46044942
S315200033600448FEF77BFE00BF8837BD4680BD00BF00
S315200033709F760020EC8D002080B483B000AF78606B
S31520003380044A7B6892FBF3F318460C37BD465DF87A
S31520003390047B70470087930380B582B000AF7860C6
S315200033A039603868FFF7E8FF02467B689A6000BFFD
S315200033B00837BD4680BD80B483B000AF78603960E1
S315200033C07B683A681A6100BF0C37BD465DF8047BFE
S315200033D0704780B483B000AF786039607B683A6804
S315200033E09A6000BF0C37BD465DF8047B704780B5F8
S315200033F082B000AF786039607B681B69012B07D1EA
S315200034007B6800221A6100210748FFF799FF06E032
S315200034107B6801221A6100210448FFF791FF00BF53
S315200034200837BD4680BD00BF488700206C87002036
S3152000343080B584B002AF786039607B68DB68012B89
S315200034400FD17B681B69012B03D100210748FFF7A9
S3152000345077FF00230093064B7A6800210548FEF784
S315200034605FFD00BF0837BD4680BD00BF90870020A6
S315200034703134002020A1070080B584B002AF7860E7
S3152000348039607B68DB68012B07D17B680022DA6014
S3152000349000210B48FFF754FF0EE07B680122DA601B
S315200034A000210848FFF74CFF00230093064B7A685B
S315200034B000210648FEF734FD00BF0837BD4680BD13
S315200034C09C870020908700203134002020A107000F
S315200034D080B483B000AF786039607B683A685A61FF
S315200034E000BF0C37BD465DF8047B704780B483B0BF
S315200034F000AF786039607B683A685A6100BF0C3744
S31520003500BD465DF8047B704780B483B000AF786019
S3152000351039607B683A689A6100BF0C37BD465DF812
S31520003520047B704780B586B002AF786039603B680F
S31520003530FB603B68002B07D07B68DB68012B03D040
S315200035407B685B69012B05D10F4B00221A70012382
S31520003550FB6006E07B689A680B4BD2B21A70002398
S31520003560FB607B689B69094A82FB03129210DB177A
S31520003570D01AFB680093064B7A680A21FEF7D0FC26
S3152000358000BF1037BD4680BD1C7400406766666666
S315200035902535002080B584B002AF786039607B681D
S315200035A05B69012B08D1012237493848FEF756FDC1
S315200035B07B6800229A6163E03B68002B43D17B68DD
S315200035C09B69334A52F823207B681B6913441846AB
S315200035D0FFF7AAFE03462F4A52F823301A462E49F1
S315200035E02A48FEF73BFD002227492848FEF736FDEC
S315200035F07B689B6807EE903AB8EEE77A7B689B6912
S31520003600264A9B001344D3ED007A27EE277A7B685F
S31520003610DB684FF47A7202FB03F307EE903AF8EE7A
S31520003620E77A37EE677AF2EE046AC7EE267AFDEE7F
S31520003630E77A012300931A4B7A68002117EE900A45
S31520003640FEF76EFC1CE001220F491048FEF706FD2E
S315200036507B689B6901335A4203F01F0302F01F0265
S3152000366058BF53427A6893617B68DB68642202FB09
S3152000367003F0002300930A4B7A680021FEF750FCE2
S315200036800837BD4680BD00BFD1340020B08D002054
S31520003690E48500206486002009350020C8860020A5
S315200036A09535002080B588B002AF7860396007F183
S315200036B008031A469B499C48FEF7D0FC9B4B1A46AA
S315200036C09B499C48FEF7CAFC3B7A19469A48FFF765
S315200036D037FE07F1080303331A4695499548FEF746
S315200036E0BDFC964B1A4692499248FEF7B7FC3B7AA8
S315200036F0FB747B68D3F8A430002B40F00E81FB7C52
S31520003700623B162B00F2048101A252F823F000BF7F
S31520003710D33700201139002011390020113900201B
S3152000372011390020113900201139002011390020CB
S3152000373011390020B738002011390020C737002062
S3152000374011390020113900206D3700201139002051
S315200037501139002029380020113900201139002084
S3152000376061380020113900204D380020002174488E
S31520003770FFF7E6FD00217348FFF7E2FD00217248BE
S31520003780FFF7DEFD00217148FFF7DAFD00217048C2
S31520003790FFF7D6FD00216F48FFF7D2FD00216E48C6
S315200037A0FFF7CEFD00216D48FFF7CAFD00216C48CA
S315200037B0FFF7C6FD00216B48FFF7C2FD00216A48CE
S315200037C0FFF7BEFDAAE0002268496948FEF746FCDD
S315200037D0A4E0BB7A07F118021344002203F80D2C4B
S315200037E007F108030333184604F062F878617B6911
S315200037F03B2B06DC00215F48FFF7A2FD3C237B61C3
S3152000380008E07B69F02B05DD00215B48FFF798FD7A
S31520003810F0237B617A6959495948FEF71FFC79697B
S315200038205848FFF78DFD79E000215748FFF788FDBE
S31520003830002256495248FEF711FC00230093544BB0
S315200038404F4A00210020FEF76BFB67E001224F491B
S315200038504B48FEF703FC00214E48FFF771FD5DE063
S31520003860BB7A07F118021344002203F80D2C07F146
S3152000387008030333184604F01BF878617B69002B94
S3152000388006DC01237B6100214348FFF759FD08E050
S315200038907B69C82B05DDC8237B6100213F48FFF7E4
S315200038A04FFD79693E48FFF74BFD7A693D4930481F
S315200038B0FEF7D4FB32E0BB7A07F11802134400224C
S315200038C003F80D2C07F108030333184603F0F0FF25
S315200038D078617B6913F1050F07DA6FF004037B61CA
S315200038E000213148FFF72CFD08E07B69052B05DD1B
S315200038F005237B6100212D48FFF722FD7A692C499B
S315200039001F48FEF7ABFB79692A48FFF719FD05E04A
S3152000391000212948FFF714FD00E000BF00BF18373B
S31520003920BD4680BDB53100200C920020AC8700201A
S315200039309F760020EC8D0020B8870020D0870020BD
S31520003940D4870020108800206088002074880020FA
S315200039509C880020BC880020DC880020008900206C
S3152000396024890020408900205C89002079340020A9
S31520003970B08D0020888900209C8900209933002062
S31520003980D08D0020B4890020C8890020ED34002085
S3152000399095350020E4890020F4890020088A00203B
S315200039A0208A0020D3330020348A0020488A002031
S315200039B0B73300205C8A0020688A002080B586B054
S315200039C000AF786039603B68DBB203F07F03DBB27F
S315200039D03B720123DBB27B727B68D3F88830DBB283
S315200039E0BB7200237B610DE07A687B691344083340
S315200039F0197807F10B027B6913440A461A707B6912
S31520003A0001337B617B68D3F888307A699A42EBDD93
S31520003A107B680022C3F8882007F108031A46044968
S31520003A200448FEF71BFB00BF1837BD4680BD00BF0C
S31520003A307F3200200C92002080B58AB002AF7860D9
S31520003A4039600123002B07D03B680A2B00F05282F5
S31520003A503968B548FFF774FC7B68D3F8A030012B92
S31520003A605CD13B68652B4BD17B680022C3F8A02034
S31520003A707B68D3F88830002B04DC0021AB48FFF7A5
S31520003A805FFC38E27B681B7A03F07F03DBB23B7373
S31520003A900123DBB27B737B68D3F88830DBB2013B32
S31520003AA0DBB2BB730023BB610DE0BB6901337A68CF
S31520003AB01344197A07F10F02BB6913440A461A7098
S31520003AC0BB690133BB617B68D3F88830013BBA6997
S31520003AD09A42EADB7B68D3F88830013B07F1200263
S31520003AE01344002203F8112C7B680022C3F8882097
S31520003AF007F10C031A468E498E48FEF7AFFAFAE113
S31520003B007B68D3F88830591C7A68C2F888103A68DE
S31520003B10D1B27A6813440A461A72ECE17B68D3F86C
S31520003B20A430012B40F07C813B68623B162B00F2CF
S31520003B30698101A252F823F0193C0020FB3B0020AA
S31520003B40053E0020053E0020053E0020DF3B0020EC
S31520003B50053E0020053E0020053E00209D3D00201C
S31520003B60053E0020053C0020053E0020053E0020A5
S31520003B70953B0020053E0020053E00207D3C002090
S31520003B80053E0020053E0020C53C0020053E0020C5
S31520003B90A93C002000216848FFF7D2FB0021674896
S31520003BA0FFF7CEFB00216648FFF7CAFB00216548D8
S31520003BB0FFF7C6FB00216448FFF7C2FB00216348DC
S31520003BC0FFF7BEFB00216248FFF7BAFB00216148E0
S31520003BD0FFF7B6FB39686048FFF7F0FE8BE17B689C
S31520003BE00022C3F8A42001225C495D48FEF736FA7C
S31520003BF000215C48FFF7A4FB7DE17B680122C3F826
S31520003C00A02078E1002258495848FEF727FA39685B
S31520003C105148FFF7D3FE6EE17B68D3F888307A6887
S31520003C20134400221A7239684B48FFF7C7FE7B6897
S31520003C300022C3F888207B680833184603F038FE34
S31520003C40F861FB693B2B06DC00214948FFF778FB2E
S31520003C503C23FB6108E0FB69F02B05DD002145488C
S31520003C60FFF76EFBF023FB61FA6943493C48FEF7F8
S31520003C70F5F9F9694148FFF763FB3CE1002140482B
S31520003C80FFF75EFB002235493548FEF7E7F90023AA
S31520003C9000933C4B324A00210020FEF741F9396857
S31520003CA02D48FFF78BFE26E101222C492C48FEF7F2
S31520003CB0D5F900213448FFF743FB39682648FFF73A
S31520003CC07DFE18E17B68D3F888307A681344002299
S31520003CD01A7239682048FFF771FE7B680022C3F804
S31520003CE088207B680833184603F0E2FDF861FB69FB
S31520003CF0002B06DC0123FB6100212448FFF720FB73
S31520003D0008E0FB69C82B05DDC823FB61002120489C
S31520003D10FFF716FBF9691F48FFF712FBFA691E49E0
S31520003D201248FEF79BF9E6E0808A00208C8A002064
S31520003D307F3200200C920020B08A0020C88A002002
S31520003D40DC8800200089002024890020408900206A
S31520003D505C890020E48A0020088D0020ED340020B4
S31520003D60D08D0020048B002079340020B08D0020D7
S31520003D70888900209C89002099330020B48900205E
S31520003D80C889002095350020E4890020F489002088
S31520003D90088A0020208A0020D33300207B68D3F8AD
S31520003DA088307A68134400221A7239685348FFF71C
S31520003DB005FE7B680022C3F888207B6808331846F6
S31520003DC003F076FDF861FB6913F1050F07DA6FF052
S31520003DD00403FB6100214A48FFF7B2FA08E0FB69B9
S31520003DE0052B05DD0523FB6100214648FFF7A8FAD0
S31520003DF0FA6945494548FEF731F9F9694448FFF71C
S31520003E009FFA78E07B68D3F88830591C7A68C2F824
S31520003E1088103A68D1B27A6813440A461A726AE060
S31520003E203B68633B112B57D801A252F823F000BF01
S31520003E30B73E0020D93E0020D93E0020D93E0020A2
S31520003E409B3E0020D93E0020D93E0020D93E0020AE
S31520003E50D93E0020D93E0020CD3E0020D93E00206C
S31520003E60D93E0020793E0020D93E0020D93E0020B0
S31520003E70D93E0020C13E002000212648FFF760FAE7
S31520003E8000212548FFF75CFA00212448FFF758FA5D
S31520003E9000212348FFF754FA2DE07B680122C3F85E
S31520003EA0A42001221F491948FEF7D8F800211E48F0
S31520003EB0FFF746FA1FE07B680122C3F8A0201AE02C
S31520003EC000221A491A48FEF7C9F814E000221949B7
S31520003ED01748FEF7C3F80EE07B68D3F88830591CE4
S31520003EE07A68C2F888103A68D1B27A6813440A46CA
S31520003EF01A7200E000BF2037BD4680BD088D002025
S31520003F00348A0020488A0020B7330020D08D002034
S31520003F105C8A0020B08A00201C8B00203C8B00206D
S31520003F20548B0020ED340020808B00207934002033
S31520003F30B08D0020EF33002080B588B002AF7860C6
S31520003F403960002223492448FEF788F800222349B5
S31520003F502348FEF783F8234B1A4623492048FEF7C9
S31520003F607DF801233B730123DBB27B730623BB73EE
S31520003F704823FB7365233B746C237B746C23BB74CF
S31520003F806F23FB7400233B7507F10C031A46174970
S31520003F901148FEF763F8012215491648FEF75EF828
S31520003FA001230093144B134A00210020FDF7B8FF8C
S31520003FB0002212491248FEF751F800230093114BB4
S31520003FC00F4A00210020FDF7ABFF00BF1837BD4682
S31520003FD080BD00BF6D2F00200C920020F9750020B7
S31520003FE0EC8D0020988B00209F7600207F320020C9
S31520003FF0D1340020B08D002025350020ED3400205E
S31520004000D08D00209535002080B500AF00220849CC
S315200040100848FEF717FA012207490848FEF712FA60
S31520004020002207490748FEF773FA0023184680BD89
S315200040302B770020EC8D00202D3000200C920020C4
S31520004040393F0020088D002080B500AF01214FF4B4
S31520004050804000F09FFD00214FF4804000F09AFD43
S3152000406000BF80BD80B483B000AF0346FB71044A15
S31520004070FB79136000BF0C37BD465DF8047B7047A3
S315200040800038014080B483B000AF0346FB71044A78
S31520004090FB79136000BF0C37BD465DF8047B704783
S315200040A02000274280B485B000AF03460A46FB7144
S315200040B01346BB710023FB60BB7903F003039B000F
S315200040C00F2202FA03F3FB60164ABB799B08DBB288
S315200040D0023352F82320FB68DB431248B97989085A
S315200040E0C9B21A408B1C40F823200E4ABB799B0884
S315200040F0DBB2023352F82320F979BB7903F00303AC
S315200041009B0001FA03F30748B9798908C9B21A4313
S315200041108B1C40F8232000BF1437BD465DF8047B76
S31520004120704700BF0038014080B483B000AF78608C
S31520004130044A7B68136000BF0C37BD465DF8047BDC
S31520004140704700BFDC00274280B483B000AF03462F
S31520004150FB71044AFB79136000BF0C37BD465DF83E
S31520004160047B70470004274280B483B000AF00234D
S31520004170FB71094B1B6A03F48073002B02D00123C9
S31520004180FB7101E00023FB71FB7918460C37BD4615
S315200041905DF8047B704700BF0038014080B400AF53
S315200041A0164B1B68154A43F001031360134B00227C
S315200041B09A60124B1B68114A23F0A85323F410234C
S315200041C013600E4B0E4A5A600C4B0E4AC3F88420DD
S315200041D00A4B0D4AC3F88820084B1B68074A23F46C
S315200041E080231360054B0022DA60044B0022C3F8BB
S315200041F08C2000BFBD465DF8047B70470038024026
S3152000420010300024003000200030002480B483B019
S3152000421000AF0346FB71064B00221A70044AFB7955
S31520004220137000BF0C37BD465DF8047B704700BF96
S315200042300238024080B582B000AF00233B600023E5
S31520004240FB710023BB71312000F08AFD0346BB7150
S315200042503B6801333B603B68B3F5A04F02D0BB7986
S31520004260002BF0D0312000F07BFD0346002B02D03E
S315200042700123FB7101E00023FB71FB791846083707
S31520004280BD4680BD80B485B000AF0346FB710023D8
S31520004290FB600A4B1B68FB60FB6823F0F803FB609E
S315200042A0FB79DB00FA681343FB60044AFB68136062
S315200042B000BF1437BD465DF8047B704700380240C6
S315200042C080B483B000AF0346FB71044AFB791360C8
S315200042D000BF0C37BD465DF8047B7047000047429F
S315200042E080B483B000AF0346FB710D4B00221A70D9
S315200042F00B4B00221A70FB79012B02D0042B04D021
S3152000430007E0074B01221A7003E0054B05221A70BD
S3152000431000BF00BF0C37BD465DF8047B704700BF69
S315200043207038024080B483B000AF0346FB71044A64
S31520004330FB79136000BF0C37BD465DF8047B7047E0
S31520004340800E474280B485B000AFF860B9607A60CD
S315200043503B607B689A01BB681A433B685B08013B5C
S315200043601B041A43FB681A43BB691B060449134303
S315200043704B6000BF1437BD465DF8047B704700BF15
S315200043800038024080B483B000AF0346FB71044A74
S31520004390FB79136000BF0C37BD465DF8047B704780
S315200043A06000474280B483B000AF786039607B6894
S315200043B09A013B681B0705491343C1F8843000BFA7
S315200043C00C37BD465DF8047B704700BF00380240BD
S315200043D080B483B000AF0346FB71044AFB791360B7
S315200043E000BF0C37BD465DF8047B70476800474226
S315200043F080B485B000AFF860B9607A60FB689A0136
S31520004400BB681B061A437B681B0705491343C1F883
S31520004410883000BF1437BD465DF8047B704700BF67
S315200044200038024080B483B000AF0346FB71044AD3
S31520004430FB79136000BF0C37BD465DF8047B7047DF
S315200044407000474280B483B000AF0346FB71044A34
S31520004450FB79136000BF0C37BD465DF8047B7047BF
S315200044604C00474280B485B000AF786039600023A5
S31520004470FB600B4B9B68FB60FB6823F0EC63FB60E7
S315200044807A683B681343FA681343FB60044AFB6867
S31520004490936000BF1437BD465DF8047B704700BFAC
S315200044A00038024080B485B000AF786039600023C0
S315200044B0FB600B4B9B68FB60FB6823F07843FB603B
S315200044C07A683B681343FA681343FB60044AFB6827
S315200044D0936000BF1437BD465DF8047B704700BF6C
S315200044E00038024080B485B000AF78600023FB60BE
S315200044F0094B9B68FB60FB6823F00303FB60FA68AB
S315200045007B681343FB60044AFB68936000BF143743
S31520004510BD465DF8047B70470038024080B400AF8A
S31520004520054B9B68DBB203F00C03DBB21846BD4695
S315200045305DF8047B704700BF0038024080B485B028
S3152000454000AF78600023FB60094B9B68FB60FB682B
S3152000455023F0F003FB60FA687B681343FB60044A90
S31520004560FB68936000BF1437BD465DF8047B704737
S315200045700038024080B485B000AF78600023FB602D
S31520004580094B9B68FB60FB6823F4E053FB60FA68E9
S315200045907B681343FB60044AFB68936000BF1437B3
S315200045A0BD465DF8047B70470038024080B485B074
S315200045B000AF78600023FB600A4B9B68FB60FB68BA
S315200045C023F46043FB607B68DB00FA681343FB60DF
S315200045D0044AFB68936000BF1437BD465DF8047B30
S315200045E0704700BF0038024080B489B000AF7860C1
S315200045F00023BB6100237B610023FB6102233B6117
S315200046000023FB600223BB604A4B9B6803F00C032C
S31520004610BB61BB69082B11D0BB69082B44D8BB6989
S31520004620002B03D0BB69042B04D03DE07B68424AB3
S315200046301A603DE07B68414A1A6039E03D4B5B6871
S315200046409B0D03F00103FB603A4B5B6803F03F03CD
S31520004650BB60FB68002B0CD0384ABB68B2FBF3F377
S31520004660344A52689209C2F3080202FB03F3FB6143
S315200046700BE0314ABB68B2FBF3F32E4A526892092B
S31520004680C2F3080202FB03F3FB612A4B5B681B0C97
S3152000469003F0030301335B003B61FA693B69B2FB1C
S315200046A0F3F27B681A6003E07B68234A1A6000BF36
S315200046B0204B9B6803F0F003BB61BB691B09BB6100
S315200046C01F4ABB6913441B78DBB27B617B681A687F
S315200046D07B69DA407B685A60164B9B6803F4E0538B
S315200046E0BB61BB699B0ABB61154ABB6913441B7836
S315200046F0DBB27B617B685A687B69DA407B689A60AB
S315200047000C4B9B6803F46043BB61BB695B0BBB61CD
S315200047100B4ABB6913441B78DBB27B617B685A6802
S315200047207B69DA407B68DA6000BF2437BD465DF8D6
S31520004730047B7047003802400024F40000127A00FF
S315200047408492002080B485B000AF78600023FB609F
S315200047507B6803F44073B3F5407F11D10F4B9B6800
S31520004760FB60FB6823F4F813FB607B6823F070433F
S3152000477023F44073FA681343FB60084AFB6893608E
S31520004780064B1A6F7B68C3F30B03044913430B676D
S3152000479000BF1437BD465DF8047B704700380240E1
S315200047A080B483B000AF0346FB71044AFB791360E3
S315200047B000BF0C37BD465DF8047B70473C0E474270
S315200047C080B483B000AF0346FB71044AFB791360C3
S315200047D000BF0C37BD465DF8047B7047400E47424C
S315200047E080B483B000AF7860044A7B68136000BF52
S315200047F00C37BD465DF8047B704700BF5C0147421D
S3152000480080B485B000AF78600023FB600B4BD3F8F3
S315200048108C30FB60FB6823F01F03FB607B68013B49
S31520004820FA681343FB60054AFB68C2F88C3000BF68
S315200048301437BD465DF8047B704700BF0038024040
S3152000484080B485B000AF78600023FB600B4BD3F8B3
S315200048508C30FB60FB6823F4F853FB607B68013BDC
S315200048601B02FA681343FB60044AFB68C2F88C30CB
S3152000487000BF1437BD465DF8047B70470038024000
S3152000488080B485B000AF78600023FB600A4BD3F874
S315200048908C30FB60FB6823F44013FB60FA687B686E
S315200048A01343FB60044AFB68C2F88C3000BF143700
S315200048B0BD465DF8047B70470038024080B485B061
S315200048C000AF78600023FB600A4BD3F88C30FB6086
S315200048D0FB6823F44003FB60FA687B681343FB60A4
S315200048E0044AFB68C2F88C3000BF1437BD465DF819
S315200048F0047B70470038024080B485B000AF7860F2
S315200049000023FB600A4BD3F88C30FB60FB6823F452
S315200049104033FB60FA687B681343FB60044AFB68FC
S31520004920C2F88C3000BF1437BD465DF8047B704753
S315200049300038024080B483B000AF7860044A7B68B8
S31520004940136000BF0C37BD465DF8047B704700BF7F
S31520004950E011474280B483B000AF78600B46FB700D
S31520004960FB78002B06D00A4B1A6B09497B68134348
S315200049700B6306E0064B1A6B7B68DB430449134046
S315200049800B6300BF0C37BD465DF8047B704700BF44
S315200049900038024080B483B000AF78600B46FB70CD
S315200049A0FB78002B06D00A4B5A6B09497B681343C8
S315200049B04B6306E0064B5A6B7B68DB430449134086
S315200049C04B6300BF0C37BD465DF8047B704700BFC4
S315200049D00038024080B483B000AF78600B46FB708D
S315200049E0FB78002B06D00A4B9A6B09497B68134348
S315200049F08B6306E0064B9A6B7B68DB4304491340C6
S31520004A008B6300BF0C37BD465DF8047B704700BF43
S31520004A100038024080B483B000AF78600B46FB704C
S31520004A20FB78002B06D00A4B1A6C09497B68134386
S31520004A300B6406E0064B1A6C7B68DB430449134083
S31520004A400B6400BF0C37BD465DF8047B704700BF82
S31520004A500038024080B483B000AF78600B46FB700C
S31520004A60FB78002B06D00A4B5A6C09497B68134306
S31520004A704B6406E0064B5A6C7B68DB4304491340C3
S31520004A804B6400BF0C37BD465DF8047B704700BF02
S31520004A900038024080B483B000AF78600B46FB70CC
S31520004AA0FB78002B06D00A4B1A6909497B68134309
S31520004AB00B6106E0064B1A697B68DB430449134009
S31520004AC00B6100BF0C37BD465DF8047B704700BF05
S31520004AD00038024080B483B000AF78600B46FB708C
S31520004AE0FB78002B06D00A4B5A6909497B68134389
S31520004AF04B6106E0064B5A697B68DB430449134049
S31520004B004B6100BF0C37BD465DF8047B704700BF84
S31520004B100038024080B483B000AF78600B46FB704B
S31520004B20FB78002B06D00A4B9A6909497B68134308
S31520004B308B6106E0064B9A697B68DB430449134088
S31520004B408B6100BF0C37BD465DF8047B704700BF04
S31520004B500038024080B483B000AF78600B46FB700B
S31520004B60FB78002B06D00A4B1A6A09497B68134347
S31520004B700B6206E0064B1A6A7B68DB430449134046
S31520004B800B6200BF0C37BD465DF8047B704700BF43
S31520004B900038024080B483B000AF78600B46FB70CB
S31520004BA0FB78002B06D00A4B5A6A09497B681343C7
S31520004BB04B6206E0064B5A6A7B68DB430449134086
S31520004BC04B6200BF0C37BD465DF8047B704700BFC3
S31520004BD00038024080B483B000AF78600B46FB708B
S31520004BE0FB78002B06D00A4B1A6D09497B681343C4
S31520004BF00B6506E0064B1A6D7B68DB4304491340C0
S31520004C000B6500BF0C37BD465DF8047B704700BFBF
S31520004C100038024080B483B000AF78600B46FB704A
S31520004C20FB78002B06D00A4B5A6D09497B68134343
S31520004C304B6506E0064B5A6D7B68DB4304491340FF
S31520004C404B6500BF0C37BD465DF8047B704700BF3F
S31520004C500038024080B483B000AF78600B46FB700A
S31520004C60FB78002B06D00A4B9A6D09497B681343C3
S31520004C708B6506E0064B9A6D7B68DB43044913403F
S31520004C808B6500BF0C37BD465DF8047B704700BFBF
S31520004C900038024080B483B000AF78600B46FB70CA
S31520004CA0FB78002B06D00A4B1A6E09497B68134302
S31520004CB00B6606E0064B1A6E7B68DB4304491340FD
S31520004CC00B6600BF0C37BD465DF8047B704700BFFE
S31520004CD00038024080B483B000AF78600B46FB708A
S31520004CE0FB78002B06D00A4B5A6E09497B68134382
S31520004CF04B6606E0064B5A6E7B68DB43044913403D
S31520004D004B6600BF0C37BD465DF8047B704700BF7D
S31520004D100038024080B483B000AF03460A46FB71D8
S31520004D201346BB71BB79002B08D00C4B1B78DAB22B
S31520004D300A49FB791343DBB20B7009E0074B1B785A
S31520004D40DAB2FB79DB43DBB204491340DBB20B70EA
S31520004D5000BF0C37BD465DF8047B70470D38024016
S31520004D6080B487B000AF0346FB710023FB600023AD
S31520004D707B610023FB74FB795B09DBB2FB60FB687C
S31520004D80012B03D1124B1B687B6109E0FB68022BC8
S31520004D9003D10F4B1B6F7B6102E00D4B5B6F7B6179
S31520004DA0FB7903F01F03FB607A69FB6822FA03F3A1
S31520004DB003F00103002B02D00123FB7401E0002342
S31520004DC0FB74FB7C18461C37BD465DF8047B704798
S31520004DD00038024080B400AF054B5B6F044A43F0B5
S31520004DE08073536700BFBD465DF8047B704700BFE4
S31520004DF00038024080B485B000AF0346FB71002323
S31520004E00FB73094BDA68FB791340002B02D0012390
S31520004E10FB7301E00023FB73FB7B18461437BD466A
S31520004E205DF8047B704700BF0038024080B483B031
S31520004E3000AF0346FB71044AFB79137000BF0C37A1
S31520004E40BD465DF8047B70470E380240314900E0CC
S31520004E503149EFF3088020ED108A7246EFF3118373
S31520004E6020E9FC0F2D4FD7F80080C8F800001EE07F
S31520004E700846FCF719FC2A48FCF716FC2948FCF7DB
S31520004E8013FCD8F80400FCF75BFC2748FCF70CFC65
S31520004E90D8F80000FCF725FC2448FCF705FCD8F8D8
S31520004EA000000068FCF71DFC1D48FCF7FDFBDFF841
S31520004EB08080D8F80080C7F8008018E01D48FCF7ED
S31520004EC0F3FBD8F80400FCF73BFC1B48FCF7ECFB93
S31520004ED0D8F80000FCF705FC1448FCF7E5FBD8F8E9
S31520004EE000000068FCF7FDFB0D48FCF7DDFB134ACC
S31520004EF0536843F00063536000BFD8F80000B0E861
S31520004F00FC0F83F311889646B0EC108A80F308884C
S31520004F107047000094920020A5920020048D002066
S31520004F2015930020C6920020DE920020E6920020F3
S31520004F30AC930020EF9200200493002000ED00E0C7
S31520004F4080B582B000AF78607B68604A934208D112
S31520004F5001210120FFF71EFE00210120FFF71AFE86
S31520004F60AFE07B68B3F1804F08D101210120FFF724
S31520004F70F1FD00210120FFF7EDFDA2E07B68544AF8
S31520004F80934208D101210220FFF7E4FD00210220EF
S31520004F90FFF7E0FD95E07B684E4A934208D1012158
S31520004FA00420FFF7D7FD00210420FFF7D3FD88E07A
S31520004FB07B68494A934208D101210820FFF7CAFDA0
S31520004FC000210820FFF7C6FD7BE07B68434A934219
S31520004FD008D101211020FFF7BDFD00211020FFF789
S31520004FE0B9FD6EE07B683E4A934208D1012120201C
S31520004FF0FFF7B0FD00212020FFF7ACFD61E07B68C4
S31520005000384A934208D101210220FFF7C3FD00212F
S315200050100220FFF7BFFD54E07B68334A93420AD152
S3152000502001214FF48030FFF7B5FD00214FF4803089
S31520005030FFF7B0FD45E07B682C4A93420AD1012157
S315200050404FF40030FFF7A6FD00214FF40030FFF7A4
S31520005050A1FD36E07B68264A93420AD101214FF40E
S315200050608020FFF797FD00214FF48020FFF792FD67
S3152000507027E07B681F4A934208D101214020FFF791
S3152000508069FD00214020FFF765FD1AE07B681A4A7A
S31520005090934208D101218020FFF75CFD002180206A
S315200050A0FFF758FD0DE07B68144A934209D1012190
S315200050B04FF48070FFF74EFD00214FF48070FFF70C
S315200050C049FD00BF0837BD4680BD00BF0000014036
S315200050D00004004000080040000C00400010004082
S315200050E000140040000401400040014000440140FB
S315200050F00048014000180040001C004000200040ED
S3152000510080B485B000AF786039600023FB817B686E
S315200051101B88FB817B68294A934213D07B68284AE7
S3152000512093420FD07B68B3F1804F0BD07B68254A22
S31520005130934207D07B68244A934203D07B68234A54
S31520005140934208D1FB8923F07003FB813B685A8880
S31520005150FB891343FB817B681D4A93420CD07B68F5
S315200051601C4A934208D0FB8923F44073FB813B6899
S315200051701A89FB891343FB817B68FA891A803B686D
S315200051805A687B68DA623B681A887B681A857B686E
S315200051900A4A934203D07B68094A934204D13B686A
S315200051A09B7A9AB27B681A867B6801229A8200BF14
S315200051B01437BD465DF8047B704700BF00000140F0
S315200051C0000401400004004000080040000C00409C
S315200051D0001000400014004080B483B000AF786017
S315200051E07B684FF0FF325A607B6800221A807B680A
S315200051F000221A817B6800225A807B6800229A72DC
S3152000520000BF0C37BD465DF8047B704780B483B081
S3152000521000AF78600B467B8013463B807B687A889C
S315200052201A857B683A889A8200BF0C37BD465DF89E
S31520005230047B704780B485B000AF78600B467B80D6
S315200052400023FB817B681B88FB81FB8923F070038D
S31520005250FB81FA897B881343FB817B68FA891A8054
S3152000526000BF1437BD465DF8047B704780B483B019
S3152000527000AF786039607B683A685A6200BF0C37A5
S31520005280BD465DF8047B704780B483B000AF78607C
S3152000529039607B683A68DA6200BF0C37BD465DF834
S315200052A0047B704780B483B000AF78607B685B6A0C
S315200052B018460C37BD465DF8047B704780B483B032
S315200052C000AF78607B681B8D9BB218460C37BD46B5
S315200052D05DF8047B704780B483B000AF78600B46DE
S315200052E0FB70FB78002B08D07B681B889BB243F0B1
S315200052F002039AB27B681A8007E07B681B889BB200
S3152000530023F002039AB27B681A8000BF0C37BD4691
S315200053105DF8047B704780B483B000AF78600B469D
S315200053207B807B88002B08D07B681B889BB243F050
S3152000533004039AB27B681A8007E07B681B889BB2BD
S3152000534023F004039AB27B681A8000BF0C37BD464F
S315200053505DF8047B704780B483B000AF78600B465D
S31520005360FB70FB78002B08D07B681B889BB243F030
S3152000537080039AB27B681A8007E07B681B889BB201
S3152000538023F080039AB27B681A8000BF0C37BD4693
S315200053905DF8047B704780B483B000AF78600B461D
S315200053A07B807B681B889BB223F008039AB27B68BC
S315200053B01A807B681B889AB27B8813439AB27B68D3
S315200053C01A8000BF0C37BD465DF8047B704780B459
S315200053D083B000AF78600B467B807B681B889BB2CE
S315200053E023F440739AB27B681A807B681B889AB232
S315200053F07B8813439AB27B681A8000BF0C37BD4660
S315200054005DF8047B704780B483B000AF78600B46AC
S31520005410FB70FB78002B08D07B681B889BB243F07F
S3152000542001039AB27B681A8007E07B681B889BB2CF
S3152000543023F001039AB27B681A8000BF0C37BD4661
S315200054405DF8047B704780B485B000AF7860396022
S3152000545000237B810023FB810023BB817B681B8C7F
S315200054609BB223F001039AB27B681A847B681B8C5B
S31520005470FB817B689B88BB817B681B8B7B817B89BF
S3152000548023F070037B817B8923F003037B813B68B8
S315200054901A887B8913437B81FB8923F00203FB81D6
S315200054A03B689A89FB891343FB813B685A88FB89B1
S315200054B01343FB817B681F4A934203D07B681E4AB5
S315200054C0934223D1FB8923F00803FB813B68DA89C9
S315200054D0FB891343FB81FB8923F00403FB813B6893
S315200054E09A88FB891343FB81BB8923F48073BB8194
S315200054F0BB8923F40073BB813B681A8ABB8913439B
